{
  "contractName": "FreelanceEscrow",
  "abi": [
    {
      "inputs": [
        {
          "internalType": "address",
          "name": "_validator",
          "type": "address"
        }
      ],
      "stateMutability": "nonpayable",
      "type": "constructor"
    },
    {
      "inputs": [],
      "name": "ReentrancyGuardReentrantCall",
      "type": "error"
    },
    {
      "anonymous": false,
      "inputs": [
        {
          "indexed": true,
          "internalType": "uint256",
          "name": "jobId",
          "type": "uint256"
        },
        {
          "indexed": true,
          "internalType": "address",
          "name": "raisedBy",
          "type": "address"
        }
      ],
      "name": "DisputeRaised",
      "type": "event"
    },
    {
      "anonymous": false,
      "inputs": [
        {
          "indexed": true,
          "internalType": "uint256",
          "name": "jobId",
          "type": "uint256"
        },
        {
          "indexed": true,
          "internalType": "address",
          "name": "winner",
          "type": "address"
        },
        {
          "indexed": false,
          "internalType": "uint256",
          "name": "amount",
          "type": "uint256"
        }
      ],
      "name": "DisputeResolved",
      "type": "event"
    },
    {
      "anonymous": false,
      "inputs": [
        {
          "indexed": true,
          "internalType": "uint256",
          "name": "jobId",
          "type": "uint256"
        },
        {
          "indexed": true,
          "internalType": "address",
          "name": "freelancer",
          "type": "address"
        }
      ],
      "name": "JobAccepted",
      "type": "event"
    },
    {
      "anonymous": false,
      "inputs": [
        {
          "indexed": true,
          "internalType": "uint256",
          "name": "jobId",
          "type": "uint256"
        },
        {
          "indexed": true,
          "internalType": "address",
          "name": "client",
          "type": "address"
        },
        {
          "indexed": false,
          "internalType": "uint256",
          "name": "payment",
          "type": "uint256"
        }
      ],
      "name": "JobCreated",
      "type": "event"
    },
    {
      "anonymous": false,
      "inputs": [
        {
          "indexed": true,
          "internalType": "uint256",
          "name": "jobId",
          "type": "uint256"
        },
        {
          "indexed": true,
          "internalType": "address",
          "name": "freelancer",
          "type": "address"
        },
        {
          "indexed": false,
          "internalType": "uint256",
          "name": "amount",
          "type": "uint256"
        }
      ],
      "name": "PaymentReleased",
      "type": "event"
    },
    {
      "anonymous": false,
      "inputs": [
        {
          "indexed": true,
          "internalType": "uint256",
          "name": "jobId",
          "type": "uint256"
        },
        {
          "indexed": true,
          "internalType": "address",
          "name": "freelancer",
          "type": "address"
        }
      ],
      "name": "WorkSubmitted",
      "type": "event"
    },
    {
      "inputs": [],
      "name": "FEE_PERCENT",
      "outputs": [
        {
          "internalType": "uint256",
          "name": "",
          "type": "uint256"
        }
      ],
      "stateMutability": "view",
      "type": "function",
      "constant": true
    },
    {
      "inputs": [],
      "name": "REP_PER_JOB",
      "outputs": [
        {
          "internalType": "uint256",
          "name": "",
          "type": "uint256"
        }
      ],
      "stateMutability": "view",
      "type": "function",
      "constant": true
    },
    {
      "inputs": [
        {
          "internalType": "address",
          "name": "",
          "type": "address"
        }
      ],
      "name": "completedJobs",
      "outputs": [
        {
          "internalType": "uint256",
          "name": "",
          "type": "uint256"
        }
      ],
      "stateMutability": "view",
      "type": "function",
      "constant": true
    },
    {
      "inputs": [],
      "name": "jobCount",
      "outputs": [
        {
          "internalType": "uint256",
          "name": "",
          "type": "uint256"
        }
      ],
      "stateMutability": "view",
      "type": "function",
      "constant": true
    },
    {
      "inputs": [
        {
          "internalType": "uint256",
          "name": "",
          "type": "uint256"
        }
      ],
      "name": "jobs",
      "outputs": [
        {
          "internalType": "uint256",
          "name": "jobId",
          "type": "uint256"
        },
        {
          "internalType": "address payable",
          "name": "client",
          "type": "address"
        },
        {
          "internalType": "address payable",
          "name": "freelancer",
          "type": "address"
        },
        {
          "internalType": "uint256",
          "name": "payment",
          "type": "uint256"
        },
        {
          "internalType": "enum FreelanceEscrow.JobState",
          "name": "state",
          "type": "uint8"
        },
        {
          "internalType": "uint256",
          "name": "createdAt",
          "type": "uint256"
        }
      ],
      "stateMutability": "view",
      "type": "function",
      "constant": true
    },
    {
      "inputs": [],
      "name": "owner",
      "outputs": [
        {
          "internalType": "address",
          "name": "",
          "type": "address"
        }
      ],
      "stateMutability": "view",
      "type": "function",
      "constant": true
    },
    {
      "inputs": [],
      "name": "repToken",
      "outputs": [
        {
          "internalType": "contract RepToken",
          "name": "",
          "type": "address"
        }
      ],
      "stateMutability": "view",
      "type": "function",
      "constant": true
    },
    {
      "inputs": [],
      "name": "validator",
      "outputs": [
        {
          "internalType": "address",
          "name": "",
          "type": "address"
        }
      ],
      "stateMutability": "view",
      "type": "function",
      "constant": true
    },
    {
      "inputs": [
        {
          "internalType": "uint256",
          "name": "jobId",
          "type": "uint256"
        }
      ],
      "name": "createJob",
      "outputs": [],
      "stateMutability": "payable",
      "type": "function",
      "payable": true
    },
    {
      "inputs": [
        {
          "internalType": "uint256",
          "name": "jobId",
          "type": "uint256"
        }
      ],
      "name": "acceptJob",
      "outputs": [],
      "stateMutability": "nonpayable",
      "type": "function"
    },
    {
      "inputs": [
        {
          "internalType": "uint256",
          "name": "jobId",
          "type": "uint256"
        }
      ],
      "name": "submitWork",
      "outputs": [],
      "stateMutability": "nonpayable",
      "type": "function"
    },
    {
      "inputs": [
        {
          "internalType": "uint256",
          "name": "jobId",
          "type": "uint256"
        }
      ],
      "name": "approveWork",
      "outputs": [],
      "stateMutability": "nonpayable",
      "type": "function"
    },
    {
      "inputs": [
        {
          "internalType": "uint256",
          "name": "jobId",
          "type": "uint256"
        }
      ],
      "name": "raiseDispute",
      "outputs": [],
      "stateMutability": "nonpayable",
      "type": "function"
    },
    {
      "inputs": [
        {
          "internalType": "uint256",
          "name": "jobId",
          "type": "uint256"
        },
        {
          "internalType": "bool",
          "name": "favorFreelancer",
          "type": "bool"
        }
      ],
      "name": "resolveDispute",
      "outputs": [],
      "stateMutability": "nonpayable",
      "type": "function"
    },
    {
      "inputs": [
        {
          "internalType": "uint256",
          "name": "jobId",
          "type": "uint256"
        }
      ],
      "name": "getJob",
      "outputs": [
        {
          "components": [
            {
              "internalType": "uint256",
              "name": "jobId",
              "type": "uint256"
            },
            {
              "internalType": "address payable",
              "name": "client",
              "type": "address"
            },
            {
              "internalType": "address payable",
              "name": "freelancer",
              "type": "address"
            },
            {
              "internalType": "uint256",
              "name": "payment",
              "type": "uint256"
            },
            {
              "internalType": "enum FreelanceEscrow.JobState",
              "name": "state",
              "type": "uint8"
            },
            {
              "internalType": "uint256",
              "name": "createdAt",
              "type": "uint256"
            }
          ],
          "internalType": "struct FreelanceEscrow.Job",
          "name": "",
          "type": "tuple"
        }
      ],
      "stateMutability": "view",
      "type": "function",
      "constant": true
    },
    {
      "inputs": [
        {
          "internalType": "address",
          "name": "account",
          "type": "address"
        }
      ],
      "name": "getReputation",
      "outputs": [
        {
          "internalType": "uint256",
          "name": "",
          "type": "uint256"
        }
      ],
      "stateMutability": "view",
      "type": "function",
      "constant": true
    },
    {
      "inputs": [],
      "name": "getContractBalance",
      "outputs": [
        {
          "internalType": "uint256",
          "name": "",
          "type": "uint256"
        }
      ],
      "stateMutability": "view",
      "type": "function",
      "constant": true
    }
  ],
  "bytecode": "0x60e060405234801562000010575f80fd5b50604051620040a0380380620040a083398181016040528101906200003691906200024c565b6001620000586200004c620001a760201b60201c565b620001d060201b60201c565b5f01819055505f73ffffffffffffffffffffffffffffffffffffffff168173ffffffffffffffffffffffffffffffffffffffff1603620000cf576040517f08c379a0000000000000000000000000000000000000000000000000000000008152600401620000c69062000300565b60405180910390fd5b3373ffffffffffffffffffffffffffffffffffffffff1660808173ffffffffffffffffffffffffffffffffffffffff16815250508073ffffffffffffffffffffffffffffffffffffffff1660a08173ffffffffffffffffffffffffffffffffffffffff1681525050306040516200014690620001d9565b62000152919062000331565b604051809103905ff0801580156200016c573d5f803e3d5ffd5b5073ffffffffffffffffffffffffffffffffffffffff1660c08173ffffffffffffffffffffffffffffffffffffffff1681525050506200034c565b5f7f9b779b17422d0df92223018b32b4d1fa46e071723d6817e2486d003becc55f005f1b905090565b5f819050919050565b6117b380620028ed83390190565b5f80fd5b5f73ffffffffffffffffffffffffffffffffffffffff82169050919050565b5f6200021682620001eb565b9050919050565b62000228816200020a565b811462000233575f80fd5b50565b5f8151905062000246816200021d565b92915050565b5f60208284031215620002645762000263620001e7565b5b5f620002738482850162000236565b91505092915050565b5f82825260208201905092915050565b7f457363726f773a2076616c696461746f722063616e6e6f74206265207a65726f5f8201527f2061646472657373000000000000000000000000000000000000000000000000602082015250565b5f620002e86028836200027c565b9150620002f5826200028c565b604082019050919050565b5f6020820190508181035f8301526200031981620002da565b9050919050565b6200032b816200020a565b82525050565b5f602082019050620003465f83018462000320565b92915050565b60805160a05160c0516125536200039a5f395f81816104840152818161077601528181610bdf0152610f6701525f81816104a8015261088a01525f8181610b7b0152610f4201526125535ff3fe6080604052600436106100fd575f3560e01c8063648a9a6b11610094578063a5c1674e11610063578063a5c1674e1461032e578063bf22c45714610356578063c4c1152314610392578063eaf98d23146103ba578063f4b1d376146103e4576100fd565b8063648a9a6b146102745780636f9fb98a1461029e5780638da5cb5b146102c85780639c89a0e2146102f2576100fd565b80633d01e0fa116100d05780633d01e0fa146101be5780634c5d8a0f146101e657806355f1f3101461021057806363b2f3c91461024c576100fd565b8063180aedf31461010157806329034a5c1461014257806334b25ee21461016c5780633a5381b514610194575b5f80fd5b34801561010c575f80fd5b50610127600480360381019061012291906119c0565b610400565b60405161013996959493929190611aac565b60405180910390f35b34801561014d575f80fd5b50610156610482565b6040516101639190611b66565b60405180910390f35b348015610177575f80fd5b50610192600480360381019061018d9190611bb4565b6104a6565b005b34801561019f575f80fd5b506101a8610888565b6040516101b59190611c12565b60405180910390f35b3480156101c9575f80fd5b506101e460048036038101906101df91906119c0565b6108ac565b005b3480156101f1575f80fd5b506101fa610d14565b6040516102079190611c2b565b60405180910390f35b34801561021b575f80fd5b5061023660048036038101906102319190611c6e565b610d19565b6040516102439190611c2b565b60405180910390f35b348015610257575f80fd5b50610272600480360381019061026d91906119c0565b610d2e565b005b34801561027f575f80fd5b50610288610f2d565b6040516102959190611c2b565b60405180910390f35b3480156102a9575f80fd5b506102b2610f39565b6040516102bf9190611c2b565b60405180910390f35b3480156102d3575f80fd5b506102dc610f40565b6040516102e99190611c12565b60405180910390f35b3480156102fd575f80fd5b5061031860048036038101906103139190611c6e565b610f64565b6040516103259190611c2b565b60405180910390f35b348015610339575f80fd5b50610354600480360381019061034f91906119c0565b611004565b005b348015610361575f80fd5b5061037c600480360381019061037791906119c0565b61122c565b6040516103899190611d3f565b60405180910390f35b34801561039d575f80fd5b506103b860048036038101906103b391906119c0565b6113f9565b005b3480156103c5575f80fd5b506103ce6115aa565b6040516103db9190611c2b565b60405180910390f35b6103fe60048036038101906103f991906119c0565b6115af565b005b6001602052805f5260405f205f91509050805f015490806001015f9054906101000a900473ffffffffffffffffffffffffffffffffffffffff1690806002015f9054906101000a900473ffffffffffffffffffffffffffffffffffffffff1690806003015490806004015f9054906101000a900460ff16908060050154905086565b7f000000000000000000000000000000000000000000000000000000000000000081565b7f000000000000000000000000000000000000000000000000000000000000000073ffffffffffffffffffffffffffffffffffffffff163373ffffffffffffffffffffffffffffffffffffffff1614610534576040517f08c379a000000000000000000000000000000000000000000000000000000000815260040161052b90611dd8565b60405180910390fd5b81600480600581111561054a57610549611a39565b5b60015f8481526020019081526020015f206004015f9054906101000a900460ff16600581111561057d5761057c611a39565b5b146105bd576040517f08c379a00000000000000000000000000000000000000000000000000000000081526004016105b490611e66565b60405180910390fd5b6105c5611850565b5f60015f8681526020019081526020015f2090505f816003015490505f8111610623576040517f08c379a000000000000000000000000000000000000000000000000000000000815260040161061a90611ece565b60405180910390fd5b6005826004015f6101000a81548160ff0219169083600581111561064a57610649611a39565b5b02179055505f82600301819055505f8561068757826001015f9054906101000a900473ffffffffffffffffffffffffffffffffffffffff166106ac565b826002015f9054906101000a900473ffffffffffffffffffffffffffffffffffffffff165b9050851561072a5760025f846002015f9054906101000a900473ffffffffffffffffffffffffffffffffffffffff1673ffffffffffffffffffffffffffffffffffffffff1673ffffffffffffffffffffffffffffffffffffffff1681526020019081526020015f205f81548092919061072490611f19565b91905055505b8073ffffffffffffffffffffffffffffffffffffffff166108fc8390811502906040515f60405180830381858888f1935050505015801561076d573d5f803e3d5ffd5b508515610828577f000000000000000000000000000000000000000000000000000000000000000073ffffffffffffffffffffffffffffffffffffffff166396549436846002015f9054906101000a900473ffffffffffffffffffffffffffffffffffffffff16670de0b6b3a76400006040518363ffffffff1660e01b81526004016107fa929190611f80565b5f604051808303815f87803b158015610811575f80fd5b505af1158015610823573d5f803e3d5ffd5b505050505b8073ffffffffffffffffffffffffffffffffffffffff16877fdf0baf5489595ea17a097d16827d60793e2f57f3b85a982e5d7e02838b841ee68460405161086f9190611c2b565b60405180910390a3505050610882611872565b50505050565b7f000000000000000000000000000000000000000000000000000000000000000081565b8060015f8281526020019081526020015f206001015f9054906101000a900473ffffffffffffffffffffffffffffffffffffffff1673ffffffffffffffffffffffffffffffffffffffff163373ffffffffffffffffffffffffffffffffffffffff161461094e576040517f08c379a000000000000000000000000000000000000000000000000000000000815260040161094590611ff1565b60405180910390fd5b81600280600581111561096457610963611a39565b5b60015f8481526020019081526020015f206004015f9054906101000a900460ff16600581111561099757610996611a39565b5b146109d7576040517f08c379a00000000000000000000000000000000000000000000000000000000081526004016109ce90611e66565b60405180910390fd5b6109df611850565b5f60015f8681526020019081526020015f2090505f816003015490505f8111610a3d576040517f08c379a0000000000000000000000000000000000000000000000000000000008152600401610a3490612059565b60405180910390fd5b6003826004015f6101000a81548160ff02191690836005811115610a6457610a63611a39565b5b02179055505f826003018190555060025f836002015f9054906101000a900473ffffffffffffffffffffffffffffffffffffffff1673ffffffffffffffffffffffffffffffffffffffff1673ffffffffffffffffffffffffffffffffffffffff1681526020019081526020015f205f815480929190610ae290611f19565b91905055505f6064600283610af79190612077565b610b0191906120e5565b90505f8183610b109190612115565b9050836002015f9054906101000a900473ffffffffffffffffffffffffffffffffffffffff1673ffffffffffffffffffffffffffffffffffffffff166108fc8290811502906040515f60405180830381858888f19350505050158015610b78573d5f803e3d5ffd5b507f000000000000000000000000000000000000000000000000000000000000000073ffffffffffffffffffffffffffffffffffffffff166108fc8390811502906040515f60405180830381858888f19350505050158015610bdc573d5f803e3d5ffd5b507f000000000000000000000000000000000000000000000000000000000000000073ffffffffffffffffffffffffffffffffffffffff166396549436856002015f9054906101000a900473ffffffffffffffffffffffffffffffffffffffff16670de0b6b3a76400006040518363ffffffff1660e01b8152600401610c63929190611f80565b5f604051808303815f87803b158015610c7a575f80fd5b505af1158015610c8c573d5f803e3d5ffd5b50505050836002015f9054906101000a900473ffffffffffffffffffffffffffffffffffffffff1673ffffffffffffffffffffffffffffffffffffffff16887f21d71db5be59bb9fa133895586b7404307dd33fb93b16db09dc6f1d9d7d231b083604051610cfa9190611c2b565b60405180910390a350505050610d0e611872565b50505050565b5f5481565b6002602052805f5260405f205f915090505481565b805f806005811115610d4357610d42611a39565b5b60015f8481526020019081526020015f206004015f9054906101000a900460ff166005811115610d7657610d75611a39565b5b14610db6576040517f08c379a0000000000000000000000000000000000000000000000000000000008152600401610dad90611e66565b60405180910390fd5b60015f8481526020019081526020015f206001015f9054906101000a900473ffffffffffffffffffffffffffffffffffffffff1673ffffffffffffffffffffffffffffffffffffffff163373ffffffffffffffffffffffffffffffffffffffff1603610e57576040517f08c379a0000000000000000000000000000000000000000000000000000000008152600401610e4e906121b8565b60405180910390fd5b3360015f8581526020019081526020015f206002015f6101000a81548173ffffffffffffffffffffffffffffffffffffffff021916908373ffffffffffffffffffffffffffffffffffffffff1602179055506001805f8581526020019081526020015f206004015f6101000a81548160ff02191690836005811115610edf57610ede611a39565b5b02179055503373ffffffffffffffffffffffffffffffffffffffff16837f4426e4a90a9570c8f678a263b11785eaaade8b79d76d18c43d4d8e00062e4f8360405160405180910390a3505050565b670de0b6b3a764000081565b5f47905090565b7f000000000000000000000000000000000000000000000000000000000000000081565b5f7f000000000000000000000000000000000000000000000000000000000000000073ffffffffffffffffffffffffffffffffffffffff166370a08231836040518263ffffffff1660e01b8152600401610fbe9190611c12565b602060405180830381865afa158015610fd9573d5f803e3d5ffd5b505050506040513d601f19601f82011682018060405250810190610ffd91906121ea565b9050919050565b5f60015f8381526020019081526020015f209050806001015f9054906101000a900473ffffffffffffffffffffffffffffffffffffffff1673ffffffffffffffffffffffffffffffffffffffff163373ffffffffffffffffffffffffffffffffffffffff1614806110c35750806002015f9054906101000a900473ffffffffffffffffffffffffffffffffffffffff1673ffffffffffffffffffffffffffffffffffffffff163373ffffffffffffffffffffffffffffffffffffffff16145b611102576040517f08c379a00000000000000000000000000000000000000000000000000000000081526004016110f990612285565b60405180910390fd5b6001600581111561111657611115611a39565b5b816004015f9054906101000a900460ff16600581111561113957611138611a39565b5b148061117957506002600581111561115457611153611a39565b5b816004015f9054906101000a900460ff16600581111561117757611176611a39565b5b145b6111b8576040517f08c379a00000000000000000000000000000000000000000000000000000000081526004016111af90612313565b60405180910390fd5b6004816004015f6101000a81548160ff021916908360058111156111df576111de611a39565b5b02179055503373ffffffffffffffffffffffffffffffffffffffff16827f84a477df8a28a4276ca6dee4458a06c3015f30c477d9c949ede4e13ff8a552b460405160405180910390a35050565b61123461191b565b5f73ffffffffffffffffffffffffffffffffffffffff1660015f8481526020019081526020015f206001015f9054906101000a900473ffffffffffffffffffffffffffffffffffffffff1673ffffffffffffffffffffffffffffffffffffffff16036112d5576040517f08c379a00000000000000000000000000000000000000000000000000000000081526004016112cc9061237b565b60405180910390fd5b60015f8381526020019081526020015f206040518060c00160405290815f8201548152602001600182015f9054906101000a900473ffffffffffffffffffffffffffffffffffffffff1673ffffffffffffffffffffffffffffffffffffffff1673ffffffffffffffffffffffffffffffffffffffff168152602001600282015f9054906101000a900473ffffffffffffffffffffffffffffffffffffffff1673ffffffffffffffffffffffffffffffffffffffff1673ffffffffffffffffffffffffffffffffffffffff16815260200160038201548152602001600482015f9054906101000a900460ff1660058111156113d2576113d1611a39565b5b60058111156113e4576113e3611a39565b5b81526020016005820154815250509050919050565b8060015f8281526020019081526020015f206002015f9054906101000a900473ffffffffffffffffffffffffffffffffffffffff1673ffffffffffffffffffffffffffffffffffffffff163373ffffffffffffffffffffffffffffffffffffffff161461149b576040517f08c379a000000000000000000000000000000000000000000000000000000000815260040161149290612409565b60405180910390fd5b8160018060058111156114b1576114b0611a39565b5b60015f8481526020019081526020015f206004015f9054906101000a900460ff1660058111156114e4576114e3611a39565b5b14611524576040517f08c379a000000000000000000000000000000000000000000000000000000000815260040161151b90611e66565b60405180910390fd5b600260015f8681526020019081526020015f206004015f6101000a81548160ff0219169083600581111561155b5761155a611a39565b5b02179055503373ffffffffffffffffffffffffffffffffffffffff16847f2e1034180f85502b3a04560be6ed4c24fe9b9c9e0bd7f4e09720494ac48859fa60405160405180910390a350505050565b600281565b5f34116115f1576040517f08c379a00000000000000000000000000000000000000000000000000000000081526004016115e890612497565b60405180910390fd5b5f73ffffffffffffffffffffffffffffffffffffffff1660015f8381526020019081526020015f206001015f9054906101000a900473ffffffffffffffffffffffffffffffffffffffff1673ffffffffffffffffffffffffffffffffffffffff1614611692576040517f08c379a0000000000000000000000000000000000000000000000000000000008152600401611689906124ff565b60405180910390fd5b6040518060c001604052808281526020013373ffffffffffffffffffffffffffffffffffffffff1681526020015f73ffffffffffffffffffffffffffffffffffffffff1681526020013481526020015f60058111156116f4576116f3611a39565b5b81526020014281525060015f8381526020019081526020015f205f820151815f01556020820151816001015f6101000a81548173ffffffffffffffffffffffffffffffffffffffff021916908373ffffffffffffffffffffffffffffffffffffffff1602179055506040820151816002015f6101000a81548173ffffffffffffffffffffffffffffffffffffffff021916908373ffffffffffffffffffffffffffffffffffffffff160217905550606082015181600301556080820151816004015f6101000a81548160ff021916908360058111156117d6576117d5611a39565b5b021790555060a082015181600501559050505f808154809291906117f990611f19565b91905055503373ffffffffffffffffffffffffffffffffffffffff16817f8678ba2d99dba901dafc51009f8d402d37a5a0275752cf0e263b827aeca906f2346040516118459190611c2b565b60405180910390a350565b61185861188c565b600261186a6118656118cd565b6118f6565b5f0181905550565b600161188461187f6118cd565b6118f6565b5f0181905550565b6118946118ff565b156118cb576040517f3ee5aeb500000000000000000000000000000000000000000000000000000000815260040160405180910390fd5b565b5f7f9b779b17422d0df92223018b32b4d1fa46e071723d6817e2486d003becc55f005f1b905090565b5f819050919050565b5f600261191261190d6118cd565b6118f6565b5f015414905090565b6040518060c001604052805f81526020015f73ffffffffffffffffffffffffffffffffffffffff1681526020015f73ffffffffffffffffffffffffffffffffffffffff1681526020015f81526020015f600581111561197d5761197c611a39565b5b81526020015f81525090565b5f80fd5b5f819050919050565b61199f8161198d565b81146119a9575f80fd5b50565b5f813590506119ba81611996565b92915050565b5f602082840312156119d5576119d4611989565b5b5f6119e2848285016119ac565b91505092915050565b6119f48161198d565b82525050565b5f73ffffffffffffffffffffffffffffffffffffffff82169050919050565b5f611a23826119fa565b9050919050565b611a3381611a19565b82525050565b7f4e487b71000000000000000000000000000000000000000000000000000000005f52602160045260245ffd5b60068110611a7757611a76611a39565b5b50565b5f819050611a8782611a66565b919050565b5f611a9682611a7a565b9050919050565b611aa681611a8c565b82525050565b5f60c082019050611abf5f8301896119eb565b611acc6020830188611a2a565b611ad96040830187611a2a565b611ae660608301866119eb565b611af36080830185611a9d565b611b0060a08301846119eb565b979650505050505050565b5f819050919050565b5f611b2e611b29611b24846119fa565b611b0b565b6119fa565b9050919050565b5f611b3f82611b14565b9050919050565b5f611b5082611b35565b9050919050565b611b6081611b46565b82525050565b5f602082019050611b795f830184611b57565b92915050565b5f8115159050919050565b611b9381611b7f565b8114611b9d575f80fd5b50565b5f81359050611bae81611b8a565b92915050565b5f8060408385031215611bca57611bc9611989565b5b5f611bd7858286016119ac565b9250506020611be885828601611ba0565b9150509250929050565b5f611bfc826119fa565b9050919050565b611c0c81611bf2565b82525050565b5f602082019050611c255f830184611c03565b92915050565b5f602082019050611c3e5f8301846119eb565b92915050565b611c4d81611bf2565b8114611c57575f80fd5b50565b5f81359050611c6881611c44565b92915050565b5f60208284031215611c8357611c82611989565b5b5f611c9084828501611c5a565b91505092915050565b611ca28161198d565b82525050565b611cb181611a19565b82525050565b611cc081611a8c565b82525050565b60c082015f820151611cda5f850182611c99565b506020820151611ced6020850182611ca8565b506040820151611d006040850182611ca8565b506060820151611d136060850182611c99565b506080820151611d266080850182611cb7565b5060a0820151611d3960a0850182611c99565b50505050565b5f60c082019050611d525f830184611cc6565b92915050565b5f82825260208201905092915050565b7f457363726f773a2063616c6c6572206973206e6f74207468652076616c6964615f8201527f746f720000000000000000000000000000000000000000000000000000000000602082015250565b5f611dc2602383611d58565b9150611dcd82611d68565b604082019050919050565b5f6020820190508181035f830152611def81611db6565b9050919050565b7f457363726f773a206a6f62206973206e6f7420696e20746865207265717569725f8201527f6564207374617465000000000000000000000000000000000000000000000000602082015250565b5f611e50602883611d58565b9150611e5b82611df6565b604082019050919050565b5f6020820190508181035f830152611e7d81611e44565b9050919050565b7f457363726f773a206e6f2066756e647320746f206469737472696275746500005f82015250565b5f611eb8601e83611d58565b9150611ec382611e84565b602082019050919050565b5f6020820190508181035f830152611ee581611eac565b9050919050565b7f4e487b71000000000000000000000000000000000000000000000000000000005f52601160045260245ffd5b5f611f238261198d565b91507fffffffffffffffffffffffffffffffffffffffffffffffffffffffffffffffff8203611f5557611f54611eec565b5b600182019050919050565b5f611f6a82611b35565b9050919050565b611f7a81611f60565b82525050565b5f604082019050611f935f830185611f71565b611fa060208301846119eb565b9392505050565b7f457363726f773a2063616c6c6572206973206e6f742074686520636c69656e745f82015250565b5f611fdb602083611d58565b9150611fe682611fa7565b602082019050919050565b5f6020820190508181035f83015261200881611fcf565b9050919050565b7f457363726f773a206e6f207061796d656e7420746f2072656c656173650000005f82015250565b5f612043601d83611d58565b915061204e8261200f565b602082019050919050565b5f6020820190508181035f83015261207081612037565b9050919050565b5f6120818261198d565b915061208c8361198d565b925082820261209a8161198d565b915082820484148315176120b1576120b0611eec565b5b5092915050565b7f4e487b71000000000000000000000000000000000000000000000000000000005f52601260045260245ffd5b5f6120ef8261198d565b91506120fa8361198d565b92508261210a576121096120b8565b5b828204905092915050565b5f61211f8261198d565b915061212a8361198d565b925082820390508181111561214257612141611eec565b5b92915050565b7f457363726f773a20636c69656e742063616e6e6f74206265207468656972206f5f8201527f776e20667265656c616e63657200000000000000000000000000000000000000602082015250565b5f6121a2602d83611d58565b91506121ad82612148565b604082019050919050565b5f6020820190508181035f8301526121cf81612196565b9050919050565b5f815190506121e481611996565b92915050565b5f602082840312156121ff576121fe611989565b5b5f61220c848285016121d6565b91505092915050565b7f457363726f773a206f6e6c79206a6f62207061727469636970616e74732063615f8201527f6e20726169736520612064697370757465000000000000000000000000000000602082015250565b5f61226f603183611d58565b915061227a82612215565b604082019050919050565b5f6020820190508181035f83015261229c81612263565b9050919050565b7f457363726f773a20646973707574652063616e206f6e6c7920626520726169735f8201527f6564206f6e20616374697665206a6f6273000000000000000000000000000000602082015250565b5f6122fd603183611d58565b9150612308826122a3565b604082019050919050565b5f6020820190508181035f83015261232a816122f1565b9050919050565b7f457363726f773a206a6f6220646f6573206e6f742065786973740000000000005f82015250565b5f612365601a83611d58565b915061237082612331565b602082019050919050565b5f6020820190508181035f83015261239281612359565b9050919050565b7f457363726f773a2063616c6c6572206973206e6f742074686520667265656c615f8201527f6e63657200000000000000000000000000000000000000000000000000000000602082015250565b5f6123f3602483611d58565b91506123fe82612399565b604082019050919050565b5f6020820190508181035f830152612420816123e7565b9050919050565b7f457363726f773a207061796d656e74206d7573742062652067726561746572205f8201527f7468616e207a65726f0000000000000000000000000000000000000000000000602082015250565b5f612481602983611d58565b915061248c82612427565b604082019050919050565b5f6020820190508181035f8301526124ae81612475565b9050919050565b7f457363726f773a206a6f6220494420616c7265616479206578697374730000005f82015250565b5f6124e9601d83611d58565b91506124f4826124b5565b602082019050919050565b5f6020820190508181035f830152612516816124dd565b905091905056fea264697066735822122090929475e1826bce2c41fefa5e6b1ca3cc069d482177bd9752674e074f7a860464736f6c63430008150033608060405234801562000010575f80fd5b50604051620017b3380380620017b383398181016040528101906200003691906200027d565b806040518060400160405280601081526020017f52657075746174696f6e20546f6b656e000000000000000000000000000000008152506040518060400160405280600381526020017f52455000000000000000000000000000000000000000000000000000000000008152508160039081620000b4919062000511565b508060049081620000c6919062000511565b5050505f73ffffffffffffffffffffffffffffffffffffffff168173ffffffffffffffffffffffffffffffffffffffff16036200013c575f6040517f1e4fbdf700000000000000000000000000000000000000000000000000000000815260040162000133919062000606565b60405180910390fd5b6200014d816200015560201b60201c565b505062000621565b5f60055f9054906101000a900473ffffffffffffffffffffffffffffffffffffffff1690508160055f6101000a81548173ffffffffffffffffffffffffffffffffffffffff021916908373ffffffffffffffffffffffffffffffffffffffff1602179055508173ffffffffffffffffffffffffffffffffffffffff168173ffffffffffffffffffffffffffffffffffffffff167f8be0079c531659141344cd1fd0a4f28419497f9722a3daafe3b4186f6b6457e060405160405180910390a35050565b5f80fd5b5f73ffffffffffffffffffffffffffffffffffffffff82169050919050565b5f62000247826200021c565b9050919050565b62000259816200023b565b811462000264575f80fd5b50565b5f8151905062000277816200024e565b92915050565b5f6020828403121562000295576200029462000218565b5b5f620002a48482850162000267565b91505092915050565b5f81519050919050565b7f4e487b71000000000000000000000000000000000000000000000000000000005f52604160045260245ffd5b7f4e487b71000000000000000000000000000000000000000000000000000000005f52602260045260245ffd5b5f60028204905060018216806200032957607f821691505b6020821081036200033f576200033e620002e4565b5b50919050565b5f819050815f5260205f209050919050565b5f6020601f8301049050919050565b5f82821b905092915050565b5f60088302620003a37fffffffffffffffffffffffffffffffffffffffffffffffffffffffffffffffff8262000366565b620003af868362000366565b95508019841693508086168417925050509392505050565b5f819050919050565b5f819050919050565b5f620003f9620003f3620003ed84620003c7565b620003d0565b620003c7565b9050919050565b5f819050919050565b6200041483620003d9565b6200042c620004238262000400565b84845462000372565b825550505050565b5f90565b6200044262000434565b6200044f81848462000409565b505050565b5b8181101562000476576200046a5f8262000438565b60018101905062000455565b5050565b601f821115620004c5576200048f8162000345565b6200049a8462000357565b81016020851015620004aa578190505b620004c2620004b98562000357565b83018262000454565b50505b505050565b5f82821c905092915050565b5f620004e75f1984600802620004ca565b1980831691505092915050565b5f620005018383620004d6565b9150826002028217905092915050565b6200051c82620002ad565b67ffffffffffffffff811115620005385762000537620002b7565b5b62000544825462000311565b620005518282856200047a565b5f60209050601f83116001811462000587575f841562000572578287015190505b6200057e8582620004f4565b865550620005ed565b601f198416620005978662000345565b5f5b82811015620005c05784890151825560018201915060208501945060208101905062000599565b86831015620005e05784890151620005dc601f891682620004d6565b8355505b6001600288020188555050505b505050505050565b62000600816200023b565b82525050565b5f6020820190506200061b5f830184620005f5565b92915050565b611184806200062f5f395ff3fe608060405234801561000f575f80fd5b50600436106100cd575f3560e01c8063715018a61161008a57806396549436116100645780639654943614610201578063a9059cbb1461021d578063dd62ed3e1461024d578063f2fde38b1461027d576100cd565b8063715018a6146101bb5780638da5cb5b146101c557806395d89b41146101e3576100cd565b806306fdde03146100d1578063095ea7b3146100ef57806318160ddd1461011f57806323b872dd1461013d578063313ce5671461016d57806370a082311461018b575b5f80fd5b6100d9610299565b6040516100e69190610dfd565b60405180910390f35b61010960048036038101906101049190610eae565b610329565b6040516101169190610f06565b60405180910390f35b61012761034b565b6040516101349190610f2e565b60405180910390f35b61015760048036038101906101529190610f47565b610354565b6040516101649190610f06565b60405180910390f35b610175610382565b6040516101829190610fb2565b60405180910390f35b6101a560048036038101906101a09190610fcb565b61038a565b6040516101b29190610f2e565b60405180910390f35b6101c36103cf565b005b6101cd6103e2565b6040516101da9190611005565b60405180910390f35b6101eb61040a565b6040516101f89190610dfd565b60405180910390f35b61021b60048036038101906102169190610eae565b61049a565b005b61023760048036038101906102329190610eae565b6104fe565b6040516102449190610f06565b60405180910390f35b6102676004803603810190610262919061101e565b610520565b6040516102749190610f2e565b60405180910390f35b61029760048036038101906102929190610fcb565b6105a2565b005b6060600380546102a890611089565b80601f01602080910402602001604051908101604052809291908181526020018280546102d490611089565b801561031f5780601f106102f65761010080835404028352916020019161031f565b820191905f5260205f20905b81548152906001019060200180831161030257829003601f168201915b5050505050905090565b5f80610333610626565b905061034081858561062d565b600191505092915050565b5f600254905090565b5f8061035e610626565b905061036b85828561063f565b6103768585856106d2565b60019150509392505050565b5f6012905090565b5f805f8373ffffffffffffffffffffffffffffffffffffffff1673ffffffffffffffffffffffffffffffffffffffff1681526020019081526020015f20549050919050565b6103d76107c2565b6103e05f610849565b565b5f60055f9054906101000a900473ffffffffffffffffffffffffffffffffffffffff16905090565b60606004805461041990611089565b80601f016020809104026020016040519081016040528092919081815260200182805461044590611089565b80156104905780601f1061046757610100808354040283529160200191610490565b820191905f5260205f20905b81548152906001019060200180831161047357829003601f168201915b5050505050905090565b6104a26107c2565b6104ac828261090c565b8173ffffffffffffffffffffffffffffffffffffffff167f99a3d10b89b07674fcd46bd1678cb120c3c0e2bdd33ab6c1ed9907208907a321826040516104f29190610f2e565b60405180910390a25050565b5f80610508610626565b90506105158185856106d2565b600191505092915050565b5f60015f8473ffffffffffffffffffffffffffffffffffffffff1673ffffffffffffffffffffffffffffffffffffffff1681526020019081526020015f205f8373ffffffffffffffffffffffffffffffffffffffff1673ffffffffffffffffffffffffffffffffffffffff1681526020019081526020015f2054905092915050565b6105aa6107c2565b5f73ffffffffffffffffffffffffffffffffffffffff168173ffffffffffffffffffffffffffffffffffffffff160361061a575f6040517f1e4fbdf70000000000000000000000000000000000000000000000000000000081526004016106119190611005565b60405180910390fd5b61062381610849565b50565b5f33905090565b61063a838383600161098b565b505050565b5f61064a8484610520565b90507fffffffffffffffffffffffffffffffffffffffffffffffffffffffffffffffff8110156106cc57818110156106bd578281836040517ffb8f41b20000000000000000000000000000000000000000000000000000000081526004016106b4939291906110b9565b60405180910390fd5b6106cb84848484035f61098b565b5b50505050565b5f73ffffffffffffffffffffffffffffffffffffffff168373ffffffffffffffffffffffffffffffffffffffff1603610742575f6040517f96c6fd1e0000000000000000000000000000000000000000000000000000000081526004016107399190611005565b60405180910390fd5b5f73ffffffffffffffffffffffffffffffffffffffff168273ffffffffffffffffffffffffffffffffffffffff16036107b2575f6040517fec442f050000000000000000000000000000000000000000000000000000000081526004016107a99190611005565b60405180910390fd5b6107bd838383610b5a565b505050565b6107ca610626565b73ffffffffffffffffffffffffffffffffffffffff166107e86103e2565b73ffffffffffffffffffffffffffffffffffffffff16146108475761080b610626565b6040517f118cdaa700000000000000000000000000000000000000000000000000000000815260040161083e9190611005565b60405180910390fd5b565b5f60055f9054906101000a900473ffffffffffffffffffffffffffffffffffffffff1690508160055f6101000a81548173ffffffffffffffffffffffffffffffffffffffff021916908373ffffffffffffffffffffffffffffffffffffffff1602179055508173ffffffffffffffffffffffffffffffffffffffff168173ffffffffffffffffffffffffffffffffffffffff167f8be0079c531659141344cd1fd0a4f28419497f9722a3daafe3b4186f6b6457e060405160405180910390a35050565b5f73ffffffffffffffffffffffffffffffffffffffff168273ffffffffffffffffffffffffffffffffffffffff160361097c575f6040517fec442f050000000000000000000000000000000000000000000000000000000081526004016109739190611005565b60405180910390fd5b6109875f8383610b5a565b5050565b5f73ffffffffffffffffffffffffffffffffffffffff168473ffffffffffffffffffffffffffffffffffffffff16036109fb575f6040517fe602df050000000000000000000000000000000000000000000000000000000081526004016109f29190611005565b60405180910390fd5b5f73ffffffffffffffffffffffffffffffffffffffff168373ffffffffffffffffffffffffffffffffffffffff1603610a6b575f6040517f94280d62000000000000000000000000000000000000000000000000000000008152600401610a629190611005565b60405180910390fd5b8160015f8673ffffffffffffffffffffffffffffffffffffffff1673ffffffffffffffffffffffffffffffffffffffff1681526020019081526020015f205f8573ffffffffffffffffffffffffffffffffffffffff1673ffffffffffffffffffffffffffffffffffffffff1681526020019081526020015f20819055508015610b54578273ffffffffffffffffffffffffffffffffffffffff168473ffffffffffffffffffffffffffffffffffffffff167f8c5be1e5ebec7d5bd14f71427d1e84f3dd0314c0f7b2291e5b200ac8c7c3b92584604051610b4b9190610f2e565b60405180910390a35b50505050565b5f73ffffffffffffffffffffffffffffffffffffffff168373ffffffffffffffffffffffffffffffffffffffff1603610baa578060025f828254610b9e919061111b565b92505081905550610c78565b5f805f8573ffffffffffffffffffffffffffffffffffffffff1673ffffffffffffffffffffffffffffffffffffffff1681526020019081526020015f2054905081811015610c33578381836040517fe450d38c000000000000000000000000000000000000000000000000000000008152600401610c2a939291906110b9565b60405180910390fd5b8181035f808673ffffffffffffffffffffffffffffffffffffffff1673ffffffffffffffffffffffffffffffffffffffff1681526020019081526020015f2081905550505b5f73ffffffffffffffffffffffffffffffffffffffff168273ffffffffffffffffffffffffffffffffffffffff1603610cbf578060025f8282540392505081905550610d09565b805f808473ffffffffffffffffffffffffffffffffffffffff1673ffffffffffffffffffffffffffffffffffffffff1681526020019081526020015f205f82825401925050819055505b8173ffffffffffffffffffffffffffffffffffffffff168373ffffffffffffffffffffffffffffffffffffffff167fddf252ad1be2c89b69c2b068fc378daa952ba7f163c4a11628f55a4df523b3ef83604051610d669190610f2e565b60405180910390a3505050565b5f81519050919050565b5f82825260208201905092915050565b5f5b83811015610daa578082015181840152602081019050610d8f565b5f8484015250505050565b5f601f19601f8301169050919050565b5f610dcf82610d73565b610dd98185610d7d565b9350610de9818560208601610d8d565b610df281610db5565b840191505092915050565b5f6020820190508181035f830152610e158184610dc5565b905092915050565b5f80fd5b5f73ffffffffffffffffffffffffffffffffffffffff82169050919050565b5f610e4a82610e21565b9050919050565b610e5a81610e40565b8114610e64575f80fd5b50565b5f81359050610e7581610e51565b92915050565b5f819050919050565b610e8d81610e7b565b8114610e97575f80fd5b50565b5f81359050610ea881610e84565b92915050565b5f8060408385031215610ec457610ec3610e1d565b5b5f610ed185828601610e67565b9250506020610ee285828601610e9a565b9150509250929050565b5f8115159050919050565b610f0081610eec565b82525050565b5f602082019050610f195f830184610ef7565b92915050565b610f2881610e7b565b82525050565b5f602082019050610f415f830184610f1f565b92915050565b5f805f60608486031215610f5e57610f5d610e1d565b5b5f610f6b86828701610e67565b9350506020610f7c86828701610e67565b9250506040610f8d86828701610e9a565b9150509250925092565b5f60ff82169050919050565b610fac81610f97565b82525050565b5f602082019050610fc55f830184610fa3565b92915050565b5f60208284031215610fe057610fdf610e1d565b5b5f610fed84828501610e67565b91505092915050565b610fff81610e40565b82525050565b5f6020820190506110185f830184610ff6565b92915050565b5f806040838503121561103457611033610e1d565b5b5f61104185828601610e67565b925050602061105285828601610e67565b9150509250929050565b7f4e487b71000000000000000000000000000000000000000000000000000000005f52602260045260245ffd5b5f60028204905060018216806110a057607f821691505b6020821081036110b3576110b261105c565b5b50919050565b5f6060820190506110cc5f830186610ff6565b6110d96020830185610f1f565b6110e66040830184610f1f565b949350505050565b7f4e487b71000000000000000000000000000000000000000000000000000000005f52601160045260245ffd5b5f61112582610e7b565b915061113083610e7b565b9250828201905080821115611148576111476110ee565b5b9291505056fea2646970667358221220f4b46bb5baad00c9a40f88b2acab7080811a88fe319807e8fb7e3603afc1f00864736f6c63430008150033",
  "immutableReferences": {
    "1180": [
      {
        "length": 32,
        "start": 2939
      },
      {
        "length": 32,
        "start": 3906
      }
    ],
    "1183": [
      {
        "length": 32,
        "start": 1192
      },
      {
        "length": 32,
        "start": 2186
      }
    ],
    "1187": [
      {
        "length": 32,
        "start": 1156
      },
      {
        "length": 32,
        "start": 1910
      },
      {
        "length": 32,
        "start": 3039
      },
      {
        "length": 32,
        "start": 3943
      }
    ]
  },
  "source": "// SPDX-License-Identifier: MIT\npragma solidity ^0.8.20;\n\nimport \"@openzeppelin/contracts/utils/ReentrancyGuard.sol\";\nimport \"./RepToken.sol\";\n\n/**\n * @title FreelanceEscrow\n * @author Your Team Name\n * @notice Decentralized escrow for freelance work.\n *         Clients lock ETH. Freelancers complete work.\n *         Funds released on approval. Disputes resolved by validator.\n * @dev Uses ReentrancyGuard and Checks-Effects-Interactions throughout.\n */\ncontract FreelanceEscrow is ReentrancyGuard {\n\n    // ─── State Variables ──────────────────────────────────────────────\n    /// @notice Platform owner address (deployer)\n    address public immutable owner;\n\n    /// @notice Dispute resolution validator address\n    address public immutable validator;\n\n    /// @notice The REP token contract\n    RepToken public immutable repToken;\n\n    /// @notice Platform fee: 2%\n    uint256 public constant FEE_PERCENT = 2;\n\n    /// @notice REP tokens awarded per completed job (1 REP)\n    uint256 public constant REP_PER_JOB = 1 * 10**18;\n\n    /// @notice Total jobs ever created\n    uint256 public jobCount;\n\n    // ─── Enum ─────────────────────────────────────────────────────────\n    /**\n     * @notice Job lifecycle states\n     * @dev Open→Accepted→Submitted→Completed\n     *      Accepted/Submitted→Disputed→Resolved\n     */\n    enum JobState { Open, Accepted, Submitted, Completed, Disputed, Resolved }\n\n    // ─── Struct ───────────────────────────────────────────────────────\n    /**\n     * @notice Stores all on-chain data for a job\n     * @param jobId Links to MongoDB document\n     * @param client Client wallet address\n     * @param freelancer Assigned freelancer address\n     * @param payment Locked ETH in wei\n     * @param state Current lifecycle state\n     * @param createdAt Block timestamp of creation\n     */\n    struct Job {\n        uint256 jobId;\n        address payable client;\n        address payable freelancer;\n        uint256 payment;\n        JobState state;\n        uint256 createdAt;\n    }\n\n    // ─── Mappings ─────────────────────────────────────────────────────\n    /// @notice All jobs indexed by ID\n    mapping(uint256 => Job) public jobs;\n\n    /// @notice Completed job count per address (on-chain reputation)\n    mapping(address => uint256) public completedJobs;\n\n    // ─── Events ───────────────────────────────────────────────────────\n    event JobCreated(uint256 indexed jobId, address indexed client, uint256 payment);\n    event JobAccepted(uint256 indexed jobId, address indexed freelancer);\n    event WorkSubmitted(uint256 indexed jobId, address indexed freelancer);\n    event PaymentReleased(uint256 indexed jobId, address indexed freelancer, uint256 amount);\n    event DisputeRaised(uint256 indexed jobId, address indexed raisedBy);\n    event DisputeResolved(uint256 indexed jobId, address indexed winner, uint256 amount);\n\n    // ─── Modifiers ────────────────────────────────────────────────────\n    /** @notice Only platform owner */\n    modifier onlyOwner() {\n        require(msg.sender == owner, \"Escrow: caller is not the owner\");\n        _;\n    }\n\n    /** @notice Only dispute validator */\n    modifier onlyValidator() {\n        require(msg.sender == validator, \"Escrow: caller is not the validator\");\n        _;\n    }\n\n    /** @notice Only client of this specific job */\n    modifier onlyClient(uint256 jobId) {\n        require(msg.sender == jobs[jobId].client, \"Escrow: caller is not the client\");\n        _;\n    }\n\n    /** @notice Only assigned freelancer of this job */\n    modifier onlyFreelancer(uint256 jobId) {\n        require(msg.sender == jobs[jobId].freelancer, \"Escrow: caller is not the freelancer\");\n        _;\n    }\n\n    /**\n     * @notice Enforces job is in a specific state before proceeding\n     * @param jobId Job to check\n     * @param expectedState Required state\n     */\n    modifier inState(uint256 jobId, JobState expectedState) {\n        require(jobs[jobId].state == expectedState, \"Escrow: job is not in the required state\");\n        _;\n    }\n\n    // ─── Constructor ──────────────────────────────────────────────────\n    /**\n     * @notice Deploys escrow, creates RepToken, sets owner and validator\n     * @param _validator Address that resolves disputes\n     */\n    constructor(address _validator) {\n        require(_validator != address(0), \"Escrow: validator cannot be zero address\");\n        owner     = msg.sender;\n        validator = _validator;\n        repToken  = new RepToken(address(this));\n    }\n\n    // ─── Functions ────────────────────────────────────────────────────\n\n    /**\n     * @notice Client creates a job and locks ETH in escrow\n     * @param jobId Matches the MongoDB document ID\n     */\n    function createJob(uint256 jobId) external payable {\n        // CHECKS\n        require(msg.value > 0, \"Escrow: payment must be greater than zero\");\n        require(jobs[jobId].client == address(0), \"Escrow: job ID already exists\");\n        // EFFECTS\n        jobs[jobId] = Job({\n            jobId:     jobId,\n            client:    payable(msg.sender),\n            freelancer: payable(address(0)),\n            payment:   msg.value,\n            state:     JobState.Open,\n            createdAt: block.timestamp\n        });\n        jobCount++;\n        // INTERACTIONS\n        emit JobCreated(jobId, msg.sender, msg.value);\n    }\n\n    /**\n     * @notice Freelancer accepts an open job\n     * @param jobId Job to accept\n     */\n    function acceptJob(uint256 jobId) external inState(jobId, JobState.Open) {\n        // CHECKS\n        require(msg.sender != jobs[jobId].client, \"Escrow: client cannot be their own freelancer\");\n        // EFFECTS\n        jobs[jobId].freelancer = payable(msg.sender);\n        jobs[jobId].state      = JobState.Accepted;\n        // INTERACTIONS\n        emit JobAccepted(jobId, msg.sender);\n    }\n\n    /**\n     * @notice Freelancer submits work for review\n     * @param jobId Job to submit\n     */\n    function submitWork(uint256 jobId)\n        external\n        onlyFreelancer(jobId)\n        inState(jobId, JobState.Accepted)\n    {\n        jobs[jobId].state = JobState.Submitted;\n        emit WorkSubmitted(jobId, msg.sender);\n    }\n\n    /**\n     * @notice Client approves work and releases ETH to freelancer\n     * @param jobId Job to approve\n     * @dev nonReentrant + Checks-Effects-Interactions prevents reentrancy\n     */\n    function approveWork(uint256 jobId)\n        external\n        onlyClient(jobId)\n        inState(jobId, JobState.Submitted)\n        nonReentrant\n    {\n        Job storage job = jobs[jobId];\n        // CHECKS\n        uint256 total = job.payment;\n        require(total > 0, \"Escrow: no payment to release\");\n        // EFFECTS — MUST happen before any external call\n        job.state   = JobState.Completed;\n        job.payment = 0;\n        completedJobs[job.freelancer]++;\n        uint256 fee    = (total * FEE_PERCENT) / 100;\n        uint256 payout = total - fee;\n        // INTERACTIONS — external calls last\n        job.freelancer.transfer(payout);\n        payable(owner).transfer(fee);\n        repToken.awardReputation(job.freelancer, REP_PER_JOB);\n        emit PaymentReleased(jobId, job.freelancer, payout);\n    }\n\n    /**\n     * @notice Either party raises a dispute on an active job\n     * @param jobId Disputed job\n     */\n    function raiseDispute(uint256 jobId) external {\n        Job storage job = jobs[jobId];\n        require(\n            msg.sender == job.client || msg.sender == job.freelancer,\n            \"Escrow: only job participants can raise a dispute\"\n        );\n        require(\n            job.state == JobState.Accepted || job.state == JobState.Submitted,\n            \"Escrow: dispute can only be raised on active jobs\"\n        );\n        job.state = JobState.Disputed;\n        emit DisputeRaised(jobId, msg.sender);\n    }\n\n    /**\n     * @notice Validator decides dispute outcome\n     * @param jobId Disputed job\n     * @param favorFreelancer True = pay freelancer, false = refund client\n     */\n    function resolveDispute(uint256 jobId, bool favorFreelancer)\n        external\n        onlyValidator\n        inState(jobId, JobState.Disputed)\n        nonReentrant\n    {\n        Job storage job = jobs[jobId];\n        uint256 total   = job.payment;\n        require(total > 0, \"Escrow: no funds to distribute\");\n        // EFFECTS\n        job.state   = JobState.Resolved;\n        job.payment = 0;\n        address payable winner = favorFreelancer ? job.freelancer : job.client;\n        if (favorFreelancer) completedJobs[job.freelancer]++;\n        // INTERACTIONS\n        winner.transfer(total);\n        if (favorFreelancer) repToken.awardReputation(job.freelancer, REP_PER_JOB);\n        emit DisputeResolved(jobId, winner, total);\n    }\n\n    // ─── View Functions ───────────────────────────────────────────────\n\n    /**\n     * @notice Returns all data for a job\n     * @param jobId Job to query\n     */\n    function getJob(uint256 jobId) external view returns (Job memory) {\n        require(jobs[jobId].client != address(0), \"Escrow: job does not exist\");\n        return jobs[jobId];\n    }\n\n    /**\n     * @notice Returns REP token balance of any address\n     * @param account Address to query\n     */\n    function getReputation(address account) external view returns (uint256) {\n        return repToken.balanceOf(account);\n    }\n\n    /**\n     * @notice Returns total ETH locked in this contract\n     */\n    function getContractBalance() external view returns (uint256) {\n        return address(this).balance;\n    }\n}",
  "sourcePath": "/home/yasser/freelance-escrow/contracts/FreelanceEscrow.sol",
  "compiler": {
    "name": "solc",
    "version": "0.8.21+commit.d9974bed.Emscripten.clang"
  },
  "schemaVersion": "3.4.16",
  "updatedAt": "2026-05-11T19:37:16.538Z",
  "networkType": "ethereum",
  "devdoc": {
    "author": "Your Team Name",
    "details": "Uses ReentrancyGuard and Checks-Effects-Interactions throughout.",
    "errors": {
      "ReentrancyGuardReentrantCall()": [
        {
          "details": "Unauthorized reentrant call."
        }
      ]
    },
    "kind": "dev",
    "methods": {
      "acceptJob(uint256)": {
        "params": {
          "jobId": "Job to accept"
        }
      },
      "approveWork(uint256)": {
        "details": "nonReentrant + Checks-Effects-Interactions prevents reentrancy",
        "params": {
          "jobId": "Job to approve"
        }
      },
      "constructor": {
        "params": {
          "_validator": "Address that resolves disputes"
        }
      },
      "createJob(uint256)": {
        "params": {
          "jobId": "Matches the MongoDB document ID"
        }
      },
      "getJob(uint256)": {
        "params": {
          "jobId": "Job to query"
        }
      },
      "getReputation(address)": {
        "params": {
          "account": "Address to query"
        }
      },
      "raiseDispute(uint256)": {
        "params": {
          "jobId": "Disputed job"
        }
      },
      "resolveDispute(uint256,bool)": {
        "params": {
          "favorFreelancer": "True = pay freelancer, false = refund client",
          "jobId": "Disputed job"
        }
      },
      "submitWork(uint256)": {
        "params": {
          "jobId": "Job to submit"
        }
      }
    },
    "title": "FreelanceEscrow",
    "version": 1
  },
  "userdoc": {
    "kind": "user",
    "methods": {
      "FEE_PERCENT()": {
        "notice": "Platform fee: 2%"
      },
      "REP_PER_JOB()": {
        "notice": "REP tokens awarded per completed job (1 REP)"
      },
      "acceptJob(uint256)": {
        "notice": "Freelancer accepts an open job"
      },
      "approveWork(uint256)": {
        "notice": "Client approves work and releases ETH to freelancer"
      },
      "completedJobs(address)": {
        "notice": "Completed job count per address (on-chain reputation)"
      },
      "constructor": {
        "notice": "Deploys escrow, creates RepToken, sets owner and validator"
      },
      "createJob(uint256)": {
        "notice": "Client creates a job and locks ETH in escrow"
      },
      "getContractBalance()": {
        "notice": "Returns total ETH locked in this contract"
      },
      "getJob(uint256)": {
        "notice": "Returns all data for a job"
      },
      "getReputation(address)": {
        "notice": "Returns REP token balance of any address"
      },
      "jobCount()": {
        "notice": "Total jobs ever created"
      },
      "jobs(uint256)": {
        "notice": "All jobs indexed by ID"
      },
      "owner()": {
        "notice": "Platform owner address (deployer)"
      },
      "raiseDispute(uint256)": {
        "notice": "Either party raises a dispute on an active job"
      },
      "repToken()": {
        "notice": "The REP token contract"
      },
      "resolveDispute(uint256,bool)": {
        "notice": "Validator decides dispute outcome"
      },
      "submitWork(uint256)": {
        "notice": "Freelancer submits work for review"
      },
      "validator()": {
        "notice": "Dispute resolution validator address"
      }
    },
    "notice": "Decentralized escrow for freelance work.         Clients lock ETH. Freelancers complete work.         Funds released on approval. Disputes resolved by validator.",
    "version": 1
  }
}