{
  "contractName": "FreelanceEscrow",
  "abi": [
    {
      "inputs": [
        {
          "internalType": "address",
          "name": "_validator",
          "type": "address"
        }
      ],
      "stateMutability": "nonpayable",
      "type": "constructor"
    },
    {
      "inputs": [],
      "name": "ReentrancyGuardReentrantCall",
      "type": "error"
    },
    {
      "anonymous": false,
      "inputs": [
        {
          "indexed": true,
          "internalType": "uint256",
          "name": "jobId",
          "type": "uint256"
        },
        {
          "indexed": true,
          "internalType": "address",
          "name": "raisedBy",
          "type": "address"
        }
      ],
      "name": "DisputeRaised",
      "type": "event"
    },
    {
      "anonymous": false,
      "inputs": [
        {
          "indexed": true,
          "internalType": "uint256",
          "name": "jobId",
          "type": "uint256"
        },
        {
          "indexed": true,
          "internalType": "address",
          "name": "winner",
          "type": "address"
        },
        {
          "indexed": false,
          "internalType": "uint256",
          "name": "amount",
          "type": "uint256"
        }
      ],
      "name": "DisputeResolved",
      "type": "event"
    },
    {
      "anonymous": false,
      "inputs": [
        {
          "indexed": true,
          "internalType": "uint256",
          "name": "jobId",
          "type": "uint256"
        },
        {
          "indexed": true,
          "internalType": "address",
          "name": "freelancer",
          "type": "address"
        }
      ],
      "name": "JobAccepted",
      "type": "event"
    },
    {
      "anonymous": false,
      "inputs": [
        {
          "indexed": true,
          "internalType": "uint256",
          "name": "jobId",
          "type": "uint256"
        },
        {
          "indexed": true,
          "internalType": "address",
          "name": "client",
          "type": "address"
        },
        {
          "indexed": false,
          "internalType": "uint256",
          "name": "payment",
          "type": "uint256"
        }
      ],
      "name": "JobCreated",
      "type": "event"
    },
    {
      "anonymous": false,
      "inputs": [
        {
          "indexed": true,
          "internalType": "uint256",
          "name": "jobId",
          "type": "uint256"
        },
        {
          "indexed": true,
          "internalType": "address",
          "name": "freelancer",
          "type": "address"
        },
        {
          "indexed": false,
          "internalType": "uint256",
          "name": "amount",
          "type": "uint256"
        }
      ],
      "name": "PaymentReleased",
      "type": "event"
    },
    {
      "anonymous": false,
      "inputs": [
        {
          "indexed": true,
          "internalType": "uint256",
          "name": "jobId",
          "type": "uint256"
        },
        {
          "indexed": true,
          "internalType": "address",
          "name": "freelancer",
          "type": "address"
        },
        {
          "indexed": false,
          "internalType": "uint256",
          "name": "amount",
          "type": "uint256"
        }
      ],
      "name": "TimeoutClaim",
      "type": "event"
    },
    {
      "anonymous": false,
      "inputs": [
        {
          "indexed": true,
          "internalType": "uint256",
          "name": "jobId",
          "type": "uint256"
        },
        {
          "indexed": true,
          "internalType": "address",
          "name": "freelancer",
          "type": "address"
        }
      ],
      "name": "WorkSubmitted",
      "type": "event"
    },
    {
      "inputs": [],
      "name": "FEE_PERCENT",
      "outputs": [
        {
          "internalType": "uint256",
          "name": "",
          "type": "uint256"
        }
      ],
      "stateMutability": "view",
      "type": "function"
    },
    {
      "inputs": [],
      "name": "REP_PER_JOB",
      "outputs": [
        {
          "internalType": "uint256",
          "name": "",
          "type": "uint256"
        }
      ],
      "stateMutability": "view",
      "type": "function"
    },
    {
      "inputs": [],
      "name": "TIMEOUT_DAYS",
      "outputs": [
        {
          "internalType": "uint256",
          "name": "",
          "type": "uint256"
        }
      ],
      "stateMutability": "view",
      "type": "function"
    },
    {
      "inputs": [
        {
          "internalType": "address",
          "name": "",
          "type": "address"
        }
      ],
      "name": "completedJobs",
      "outputs": [
        {
          "internalType": "uint256",
          "name": "",
          "type": "uint256"
        }
      ],
      "stateMutability": "view",
      "type": "function"
    },
    {
      "inputs": [],
      "name": "jobCount",
      "outputs": [
        {
          "internalType": "uint256",
          "name": "",
          "type": "uint256"
        }
      ],
      "stateMutability": "view",
      "type": "function"
    },
    {
      "inputs": [
        {
          "internalType": "uint256",
          "name": "",
          "type": "uint256"
        }
      ],
      "name": "jobs",
      "outputs": [
        {
          "internalType": "uint256",
          "name": "jobId",
          "type": "uint256"
        },
        {
          "internalType": "address payable",
          "name": "client",
          "type": "address"
        },
        {
          "internalType": "address payable",
          "name": "freelancer",
          "type": "address"
        },
        {
          "internalType": "uint256",
          "name": "payment",
          "type": "uint256"
        },
        {
          "internalType": "enum FreelanceEscrow.JobState",
          "name": "state",
          "type": "uint8"
        },
        {
          "internalType": "uint256",
          "name": "createdAt",
          "type": "uint256"
        }
      ],
      "stateMutability": "view",
      "type": "function"
    },
    {
      "inputs": [],
      "name": "owner",
      "outputs": [
        {
          "internalType": "address",
          "name": "",
          "type": "address"
        }
      ],
      "stateMutability": "view",
      "type": "function"
    },
    {
      "inputs": [],
      "name": "repToken",
      "outputs": [
        {
          "internalType": "contract RepToken",
          "name": "",
          "type": "address"
        }
      ],
      "stateMutability": "view",
      "type": "function"
    },
    {
      "inputs": [],
      "name": "validator",
      "outputs": [
        {
          "internalType": "address",
          "name": "",
          "type": "address"
        }
      ],
      "stateMutability": "view",
      "type": "function"
    },
    {
      "inputs": [
        {
          "internalType": "uint256",
          "name": "jobId",
          "type": "uint256"
        }
      ],
      "name": "createJob",
      "outputs": [],
      "stateMutability": "payable",
      "type": "function"
    },
    {
      "inputs": [
        {
          "internalType": "uint256",
          "name": "jobId",
          "type": "uint256"
        }
      ],
      "name": "acceptJob",
      "outputs": [],
      "stateMutability": "nonpayable",
      "type": "function"
    },
    {
      "inputs": [
        {
          "internalType": "uint256",
          "name": "jobId",
          "type": "uint256"
        }
      ],
      "name": "submitWork",
      "outputs": [],
      "stateMutability": "nonpayable",
      "type": "function"
    },
    {
      "inputs": [
        {
          "internalType": "uint256",
          "name": "jobId",
          "type": "uint256"
        }
      ],
      "name": "approveWork",
      "outputs": [],
      "stateMutability": "nonpayable",
      "type": "function"
    },
    {
      "inputs": [
        {
          "internalType": "uint256",
          "name": "jobId",
          "type": "uint256"
        }
      ],
      "name": "raiseDispute",
      "outputs": [],
      "stateMutability": "nonpayable",
      "type": "function"
    },
    {
      "inputs": [
        {
          "internalType": "uint256",
          "name": "jobId",
          "type": "uint256"
        }
      ],
      "name": "claimAfterTimeout",
      "outputs": [],
      "stateMutability": "nonpayable",
      "type": "function"
    },
    {
      "inputs": [
        {
          "internalType": "uint256",
          "name": "jobId",
          "type": "uint256"
        },
        {
          "internalType": "bool",
          "name": "favorFreelancer",
          "type": "bool"
        }
      ],
      "name": "resolveDispute",
      "outputs": [],
      "stateMutability": "nonpayable",
      "type": "function"
    },
    {
      "inputs": [
        {
          "internalType": "uint256",
          "name": "jobId",
          "type": "uint256"
        }
      ],
      "name": "getJob",
      "outputs": [
        {
          "components": [
            {
              "internalType": "uint256",
              "name": "jobId",
              "type": "uint256"
            },
            {
              "internalType": "address payable",
              "name": "client",
              "type": "address"
            },
            {
              "internalType": "address payable",
              "name": "freelancer",
              "type": "address"
            },
            {
              "internalType": "uint256",
              "name": "payment",
              "type": "uint256"
            },
            {
              "internalType": "enum FreelanceEscrow.JobState",
              "name": "state",
              "type": "uint8"
            },
            {
              "internalType": "uint256",
              "name": "createdAt",
              "type": "uint256"
            }
          ],
          "internalType": "struct FreelanceEscrow.Job",
          "name": "",
          "type": "tuple"
        }
      ],
      "stateMutability": "view",
      "type": "function"
    },
    {
      "inputs": [
        {
          "internalType": "address",
          "name": "account",
          "type": "address"
        }
      ],
      "name": "getReputation",
      "outputs": [
        {
          "internalType": "uint256",
          "name": "",
          "type": "uint256"
        }
      ],
      "stateMutability": "view",
      "type": "function"
    },
    {
      "inputs": [],
      "name": "getContractBalance",
      "outputs": [
        {
          "internalType": "uint256",
          "name": "",
          "type": "uint256"
        }
      ],
      "stateMutability": "view",
      "type": "function"
    }
  ],
  "bytecode": "0x60e060405234801562000010575f80fd5b506040516200240d3803806200240d833981016040819052620000339162000130565b60017f9b779b17422d0df92223018b32b4d1fa46e071723d6817e2486d003becc55f00556001600160a01b038116620000c35760405162461bcd60e51b815260206004820152602860248201527f457363726f773a2076616c696461746f722063616e6e6f74206265207a65726f604482015267206164647265737360c01b606482015260840160405180910390fd5b336080526001600160a01b03811660a0526040513090620000e49062000122565b6001600160a01b039091168152602001604051809103905ff0801580156200010e573d5f803e3d5ffd5b506001600160a01b031660c052506200015f565b610bb1806200185c83390190565b5f6020828403121562000141575f80fd5b81516001600160a01b038116811462000158575f80fd5b9392505050565b60805160a05160c0516116a8620001b45f395f818161019f015281816106120152818161091001528181610d050152610ddd01525f818161020b015261040601525f8181610329015261089701526116a85ff3fe608060405260043610610110575f3560e01c80636f556d261161009d578063a5c1674e11610062578063a5c1674e1461036a578063bf22c45714610389578063c4c11523146103b5578063eaf98d23146103d4578063f4b1d376146103e8575f80fd5b80636f556d26146102d35780636f9fb98a146102f257806376f21577146103045780638da5cb5b146103185780639c89a0e21461034b575f80fd5b80633d01e0fa116100e35780633d01e0fa1461022d5780634c5d8a0f1461024c57806355f1f3101461026e57806363b2f3c914610299578063648a9a6b146102b8575f80fd5b8063180aedf31461011457806329034a5c1461018e57806334b25ee2146101d95780633a5381b5146101fa575b5f80fd5b34801561011f575f80fd5b5061017361012e3660046113e2565b600160208190525f91825260409091208054918101546002820154600383015460048401546005909401546001600160a01b03938416949290931692909160ff169086565b6040516101859695949392919061142d565b60405180910390f35b348015610199575f80fd5b506101c17f000000000000000000000000000000000000000000000000000000000000000081565b6040516001600160a01b039091168152602001610185565b3480156101e4575f80fd5b506101f86101f3366004611470565b6103fb565b005b348015610205575f80fd5b506101c17f000000000000000000000000000000000000000000000000000000000000000081565b348015610238575f80fd5b506101f86102473660046113e2565b6106cf565b348015610257575f80fd5b506102605f5481565b604051908152602001610185565b348015610279575f80fd5b506102606102883660046114a2565b60026020525f908152604090205481565b3480156102a4575f80fd5b506101f86102b33660046113e2565b6109c9565b3480156102c3575f80fd5b50610260670de0b6b3a764000081565b3480156102de575f80fd5b506101f86102ed3660046113e2565b610af2565b3480156102fd575f80fd5b5047610260565b34801561030f575f80fd5b50610260600781565b348015610323575f80fd5b506101c17f000000000000000000000000000000000000000000000000000000000000000081565b348015610356575f80fd5b506102606103653660046114a2565b610dbc565b348015610375575f80fd5b506101f86103843660046113e2565b610e4e565b348015610394575f80fd5b506103a86103a33660046113e2565b610fcf565b60405161018591906114cf565b3480156103c0575f80fd5b506101f86103cf3660046113e2565b6110fa565b3480156103df575f80fd5b50610260600281565b6101f86103f63660046113e2565b6111c5565b336001600160a01b037f000000000000000000000000000000000000000000000000000000000000000016146104845760405162461bcd60e51b815260206004820152602360248201527f457363726f773a2063616c6c6572206973206e6f74207468652076616c6964616044820152623a37b960e91b60648201526084015b60405180910390fd5b816004805f8381526001602052604090206004015460ff1660058111156104ad576104ad6113f9565b146104ca5760405162461bcd60e51b815260040161047b90611527565b6104d2611396565b5f8481526001602052604090206003810154806105315760405162461bcd60e51b815260206004820152601e60248201527f457363726f773a206e6f2066756e647320746f20646973747269627574650000604482015260640161047b565b60048201805460ff191660051790555f60038301819055856105605760018301546001600160a01b031661056f565b60028301546001600160a01b03165b905085156105a6576002838101546001600160a01b03165f908152602091909152604081208054916105a083611583565b91905055505b6040516001600160a01b0382169083156108fc029084905f818181858888f193505050501580156105d9573d5f803e3d5ffd5b50851561066c576002830154604051634b2a4a1b60e11b81526001600160a01b039182166004820152670de0b6b3a764000060248201527f0000000000000000000000000000000000000000000000000000000000000000909116906396549436906044015f604051808303815f87803b158015610655575f80fd5b505af1158015610667573d5f803e3d5ffd5b505050505b806001600160a01b0316877fdf0baf5489595ea17a097d16827d60793e2f57f3b85a982e5d7e02838b841ee6846040516106a891815260200190565b60405180910390a35050506106c960015f8051602061165383398151915255565b50505050565b5f818152600160208190526040909120015481906001600160a01b0316331461073a5760405162461bcd60e51b815260206004820181905260248201527f457363726f773a2063616c6c6572206973206e6f742074686520636c69656e74604482015260640161047b565b816002805f8381526001602052604090206004015460ff166005811115610763576107636113f9565b146107805760405162461bcd60e51b815260040161047b90611527565b610788611396565b5f8481526001602052604090206003810154806107e75760405162461bcd60e51b815260206004820152601d60248201527f457363726f773a206e6f207061796d656e7420746f2072656c65617365000000604482015260640161047b565b60048201805460ff191660039081179091555f9083018190556002808401546001600160a01b031682526020526040812080549161082483611583565b909155505f9050606461083860028461159b565b61084291906115b2565b90505f61084f82846115d1565b60028501546040519192506001600160a01b03169082156108fc029083905f818181858888f19350505050158015610889573d5f803e3d5ffd5b506040516001600160a01b037f0000000000000000000000000000000000000000000000000000000000000000169083156108fc029084905f818181858888f193505050501580156108dd573d5f803e3d5ffd5b506002840154604051634b2a4a1b60e11b81526001600160a01b039182166004820152670de0b6b3a764000060248201527f0000000000000000000000000000000000000000000000000000000000000000909116906396549436906044015f604051808303815f87803b158015610953575f80fd5b505af1158015610965573d5f803e3d5ffd5b5050505060028401546040518281526001600160a01b039091169089907f21d71db5be59bb9fa133895586b7404307dd33fb93b16db09dc6f1d9d7d231b09060200160405180910390a3505050506106c960015f8051602061165383398151915255565b805f805f8381526001602052604090206004015460ff1660058111156109f1576109f16113f9565b14610a0e5760405162461bcd60e51b815260040161047b90611527565b5f83815260016020819052604090912001546001600160a01b03163303610a8d5760405162461bcd60e51b815260206004820152602d60248201527f457363726f773a20636c69656e742063616e6e6f74206265207468656972206f60448201526c3bb710333932b2b630b731b2b960991b606482015260840161047b565b5f8381526001602081905260409091206002810180546001600160a01b03191633179055600401805460ff191682800217905550604051339084907f4426e4a90a9570c8f678a263b11785eaaade8b79d76d18c43d4d8e00062e4f83905f90a3505050565b5f8181526001602052604090206002015481906001600160a01b03163314610b2c5760405162461bcd60e51b815260040161047b906115e4565b816002805f8381526001602052604090206004015460ff166005811115610b5557610b556113f9565b14610b725760405162461bcd60e51b815260040161047b90611527565b610b7a611396565b5f848152600160205260409020610b9560076201518061159b565b8160050154610ba49190611628565b421015610c055760405162461bcd60e51b815260206004820152602960248201527f457363726f773a2074696d656f757420706572696f6420686173206e6f742070604482015268185cdcd959081e595d60ba1b606482015260840161047b565b600381015480610c575760405162461bcd60e51b815260206004820152601d60248201527f457363726f773a206e6f207061796d656e7420746f2072656c65617365000000604482015260640161047b565b60048201805460ff191660039081179091555f9083018190556002808401546001600160a01b0316825260205260408120805491610c9483611583565b909155505060028201546040516001600160a01b039091169082156108fc029083905f818181858888f19350505050158015610cd2573d5f803e3d5ffd5b506002820154604051634b2a4a1b60e11b81526001600160a01b039182166004820152670de0b6b3a764000060248201527f0000000000000000000000000000000000000000000000000000000000000000909116906396549436906044015f604051808303815f87803b158015610d48575f80fd5b505af1158015610d5a573d5f803e3d5ffd5b5050505060028201546040518281526001600160a01b039091169087907fd783968bfa830988392eb1e753bd6b54c7bd598ce1555a677833b1c468de8f0c9060200160405180910390a350506106c960015f8051602061165383398151915255565b6040516370a0823160e01b81526001600160a01b0382811660048301525f917f0000000000000000000000000000000000000000000000000000000000000000909116906370a0823190602401602060405180830381865afa158015610e24573d5f803e3d5ffd5b505050506040513d601f19601f82011682018060405250810190610e48919061163b565b92915050565b5f818152600160208190526040909120908101546001600160a01b0316331480610e84575060028101546001600160a01b031633145b610eea5760405162461bcd60e51b815260206004820152603160248201527f457363726f773a206f6e6c79206a6f62207061727469636970616e74732063616044820152706e2072616973652061206469737075746560781b606482015260840161047b565b6001600482015460ff166005811115610f0557610f056113f9565b1480610f2957506002600482015460ff166005811115610f2757610f276113f9565b145b610f8f5760405162461bcd60e51b815260206004820152603160248201527f457363726f773a20646973707574652063616e206f6e6c7920626520726169736044820152706564206f6e20616374697665206a6f627360781b606482015260840161047b565b6004818101805460ff19169091179055604051339083907f84a477df8a28a4276ca6dee4458a06c3015f30c477d9c949ede4e13ff8a552b4905f90a35050565b6040805160c0810182525f80825260208201819052918101829052606081018290526080810182905260a08101919091525f82815260016020819052604090912001546001600160a01b03166110675760405162461bcd60e51b815260206004820152601a60248201527f457363726f773a206a6f6220646f6573206e6f74206578697374000000000000604482015260640161047b565b5f82815260016020818152604092839020835160c08101855281548152928101546001600160a01b0390811692840192909252600281015490911692820192909252600382015460608201526004820154909190608083019060ff1660058111156110d4576110d46113f9565b60058111156110e5576110e56113f9565b81526020016005820154815250509050919050565b5f8181526001602052604090206002015481906001600160a01b031633146111345760405162461bcd60e51b815260040161047b906115e4565b816001805f8381526001602052604090206004015460ff16600581111561115d5761115d6113f9565b1461117a5760405162461bcd60e51b815260040161047b90611527565b5f84815260016020526040808220600401805460ff1916600217905551339186917f2e1034180f85502b3a04560be6ed4c24fe9b9c9e0bd7f4e09720494ac48859fa9190a350505050565b5f34116112265760405162461bcd60e51b815260206004820152602960248201527f457363726f773a207061796d656e74206d7573742062652067726561746572206044820152687468616e207a65726f60b81b606482015260840161047b565b5f81815260016020819052604090912001546001600160a01b03161561128e5760405162461bcd60e51b815260206004820152601d60248201527f457363726f773a206a6f6220494420616c726561647920657869737473000000604482015260640161047b565b6040805160c0810182528281523360208201525f9181018290523460608201529060808201908152426020918201525f8381526001808352604091829020845181559284015183820180546001600160a01b03199081166001600160a01b0393841617909155928501516002850180549094169116179091556060830151600383015560808301516004830180549192909160ff191690836005811115611337576113376113f9565b021790555060a091909101516005909101555f8054908061135783611583565b9091555050604051348152339082907f8678ba2d99dba901dafc51009f8d402d37a5a0275752cf0e263b827aeca906f29060200160405180910390a350565b61139e6113b1565b60025f8051602061165383398151915255565b5f80516020611653833981519152546002036113e057604051633ee5aeb560e01b815260040160405180910390fd5b565b5f602082840312156113f2575f80fd5b5035919050565b634e487b7160e01b5f52602160045260245ffd5b6006811061142957634e487b7160e01b5f52602160045260245ffd5b9052565b8681526001600160a01b038681166020830152851660408201526060810184905260c0810161145f608083018561140d565b8260a0830152979650505050505050565b5f8060408385031215611481575f80fd5b8235915060208301358015158114611497575f80fd5b809150509250929050565b5f602082840312156114b2575f80fd5b81356001600160a01b03811681146114c8575f80fd5b9392505050565b5f60c08201905082518252602083015160018060a01b0380821660208501528060408601511660408501525050606083015160608301526080830151611518608084018261140d565b5060a092830151919092015290565b60208082526028908201527f457363726f773a206a6f62206973206e6f7420696e2074686520726571756972604082015267656420737461746560c01b606082015260800190565b634e487b7160e01b5f52601160045260245ffd5b5f600182016115945761159461156f565b5060010190565b8082028115828204841417610e4857610e4861156f565b5f826115cc57634e487b7160e01b5f52601260045260245ffd5b500490565b81810381811115610e4857610e4861156f565b60208082526024908201527f457363726f773a2063616c6c6572206973206e6f742074686520667265656c616040820152633731b2b960e11b606082015260800190565b80820180821115610e4857610e4861156f565b5f6020828403121561164b575f80fd5b505191905056fe9b779b17422d0df92223018b32b4d1fa46e071723d6817e2486d003becc55f00a2646970667358221220468a68f7a8044c6ed45240eee65f308a26d4f051025011e0e6182c1b8d07975464736f6c63430008140033608060405234801562000010575f80fd5b5060405162000bb138038062000bb183398101604081905262000033916200012e565b806040518060400160405280601081526020016f2932b83aba30ba34b7b7102a37b5b2b760811b8152506040518060400160405280600381526020016205245560ec1b81525081600390816200008a9190620001fd565b506004620000998282620001fd565b5050506001600160a01b038116620000ca57604051631e4fbdf760e01b81525f600482015260240160405180910390fd5b620000d581620000dd565b5050620002c5565b600580546001600160a01b038381166001600160a01b0319831681179093556040519116919082907f8be0079c531659141344cd1fd0a4f28419497f9722a3daafe3b4186f6b6457e0905f90a35050565b5f602082840312156200013f575f80fd5b81516001600160a01b038116811462000156575f80fd5b9392505050565b634e487b7160e01b5f52604160045260245ffd5b600181811c908216806200018657607f821691505b602082108103620001a557634e487b7160e01b5f52602260045260245ffd5b50919050565b601f821115620001f8575f81815260208120601f850160051c81016020861015620001d35750805b601f850160051c820191505b81811015620001f457828155600101620001df565b5050505b505050565b81516001600160401b038111156200021957620002196200015d565b62000231816200022a845462000171565b84620001ab565b602080601f83116001811462000267575f84156200024f5750858301515b5f19600386901b1c1916600185901b178555620001f4565b5f85815260208120601f198616915b82811015620002975788860151825594840194600190910190840162000276565b5085821015620002b557878501515f19600388901b60f8161c191681555b5050505050600190811b01905550565b6108de80620002d35f395ff3fe608060405234801561000f575f80fd5b50600436106100cb575f3560e01c8063715018a61161008857806396549436116100635780639654943614610199578063a9059cbb146101ac578063dd62ed3e146101bf578063f2fde38b146101f7575f80fd5b8063715018a61461016c5780638da5cb5b1461017657806395d89b4114610191575f80fd5b806306fdde03146100cf578063095ea7b3146100ed57806318160ddd1461011057806323b872dd14610122578063313ce5671461013557806370a0823114610144575b5f80fd5b6100d761020a565b6040516100e49190610739565b60405180910390f35b6101006100fb36600461079f565b61029a565b60405190151581526020016100e4565b6002545b6040519081526020016100e4565b6101006101303660046107c7565b6102b3565b604051601281526020016100e4565b610114610152366004610800565b6001600160a01b03165f9081526020819052604090205490565b6101746102d6565b005b6005546040516001600160a01b0390911681526020016100e4565b6100d76102e9565b6101746101a736600461079f565b6102f8565b6101006101ba36600461079f565b610351565b6101146101cd366004610820565b6001600160a01b039182165f90815260016020908152604080832093909416825291909152205490565b610174610205366004610800565b61035e565b60606003805461021990610851565b80601f016020809104026020016040519081016040528092919081815260200182805461024590610851565b80156102905780601f1061026757610100808354040283529160200191610290565b820191905f5260205f20905b81548152906001019060200180831161027357829003601f168201915b5050505050905090565b5f336102a78185856103a0565b60019150505b92915050565b5f336102c08582856103b2565b6102cb85858561042e565b506001949350505050565b6102de61048b565b6102e75f6104b8565b565b60606004805461021990610851565b61030061048b565b61030a8282610509565b816001600160a01b03167f99a3d10b89b07674fcd46bd1678cb120c3c0e2bdd33ab6c1ed9907208907a3218260405161034591815260200190565b60405180910390a25050565b5f336102a781858561042e565b61036661048b565b6001600160a01b03811661039457604051631e4fbdf760e01b81525f60048201526024015b60405180910390fd5b61039d816104b8565b50565b6103ad8383836001610541565b505050565b6001600160a01b038381165f908152600160209081526040808320938616835292905220545f19811015610428578181101561041a57604051637dc7a0d960e11b81526001600160a01b0384166004820152602481018290526044810183905260640161038b565b61042884848484035f610541565b50505050565b6001600160a01b03831661045757604051634b637e8f60e11b81525f600482015260240161038b565b6001600160a01b0382166104805760405163ec442f0560e01b81525f600482015260240161038b565b6103ad838383610613565b6005546001600160a01b031633146102e75760405163118cdaa760e01b815233600482015260240161038b565b600580546001600160a01b038381166001600160a01b0319831681179093556040519116919082907f8be0079c531659141344cd1fd0a4f28419497f9722a3daafe3b4186f6b6457e0905f90a35050565b6001600160a01b0382166105325760405163ec442f0560e01b81525f600482015260240161038b565b61053d5f8383610613565b5050565b6001600160a01b03841661056a5760405163e602df0560e01b81525f600482015260240161038b565b6001600160a01b03831661059357604051634a1406b160e11b81525f600482015260240161038b565b6001600160a01b038085165f908152600160209081526040808320938716835292905220829055801561042857826001600160a01b0316846001600160a01b03167f8c5be1e5ebec7d5bd14f71427d1e84f3dd0314c0f7b2291e5b200ac8c7c3b9258460405161060591815260200190565b60405180910390a350505050565b6001600160a01b03831661063d578060025f8282546106329190610889565b909155506106ad9050565b6001600160a01b0383165f908152602081905260409020548181101561068f5760405163391434e360e21b81526001600160a01b0385166004820152602481018290526044810183905260640161038b565b6001600160a01b0384165f9081526020819052604090209082900390555b6001600160a01b0382166106c9576002805482900390556106e7565b6001600160a01b0382165f9081526020819052604090208054820190555b816001600160a01b0316836001600160a01b03167fddf252ad1be2c89b69c2b068fc378daa952ba7f163c4a11628f55a4df523b3ef8360405161072c91815260200190565b60405180910390a3505050565b5f6020808352835180828501525f5b8181101561076457858101830151858201604001528201610748565b505f604082860101526040601f19601f8301168501019250505092915050565b80356001600160a01b038116811461079a575f80fd5b919050565b5f80604083850312156107b0575f80fd5b6107b983610784565b946020939093013593505050565b5f805f606084860312156107d9575f80fd5b6107e284610784565b92506107f060208501610784565b9150604084013590509250925092565b5f60208284031215610810575f80fd5b61081982610784565b9392505050565b5f8060408385031215610831575f80fd5b61083a83610784565b915061084860208401610784565b90509250929050565b600181811c9082168061086557607f821691505b60208210810361088357634e487b7160e01b5f52602260045260245ffd5b50919050565b808201808211156102ad57634e487b7160e01b5f52601160045260245ffdfea2646970667358221220c019e7ea0730aa7ae1dce39dedf08f340728f74c985514d14186f2e4f631d74d64736f6c63430008140033",
  "immutableReferences": {
    "1180": [
      {
        "length": 32,
        "start": 809
      },
      {
        "length": 32,
        "start": 2199
      }
    ],
    "1183": [
      {
        "length": 32,
        "start": 523
      },
      {
        "length": 32,
        "start": 1030
      }
    ],
    "1187": [
      {
        "length": 32,
        "start": 415
      },
      {
        "length": 32,
        "start": 1554
      },
      {
        "length": 32,
        "start": 2320
      },
      {
        "length": 32,
        "start": 3333
      },
      {
        "length": 32,
        "start": 3549
      }
    ]
  },
  "source": "// SPDX-License-Identifier: MIT\npragma solidity ^0.8.20;\n\nimport \"@openzeppelin/contracts/utils/ReentrancyGuard.sol\";\nimport \"./RepToken.sol\";\n\n/**\n * @title FreelanceEscrow\n * @author Your Team Name\n * @notice Decentralized escrow for freelance work.\n *         Clients lock ETH. Freelancers complete work.\n *         Funds released on approval. Disputes resolved by validator.\n * @dev Uses ReentrancyGuard and Checks-Effects-Interactions throughout.\n */\ncontract FreelanceEscrow is ReentrancyGuard {\n\n    // ─── State Variables ──────────────────────────────────────────────\n    /// @notice Platform owner address (deployer)\n    address public immutable owner;\n\n    /// @notice Dispute resolution validator address\n    address public immutable validator;\n\n    /// @notice The REP token contract\n    RepToken public immutable repToken;\n\n    /// @notice Platform fee: 2%\n    uint256 public constant FEE_PERCENT = 2;\n\n    /// @notice REP tokens awarded per completed job (1 REP)\n    uint256 public constant REP_PER_JOB = 1 * 10**18;\n\n    /// @notice Total jobs ever created\n    uint256 public jobCount;\n\n    /// @notice Days before freelancer can claim if client is unresponsive\n    uint256 public constant TIMEOUT_DAYS = 7;\n\n    // ─── Enum ─────────────────────────────────────────────────────────\n    /**\n     * @notice Job lifecycle states\n     * @dev Open→Accepted→Submitted→Completed\n     *      Accepted/Submitted→Disputed→Resolved\n     */\n    enum JobState { Open, Accepted, Submitted, Completed, Disputed, Resolved }\n\n    // ─── Struct ───────────────────────────────────────────────────────\n    /**\n     * @notice Stores all on-chain data for a job\n     * @param jobId Links to MongoDB document\n     * @param client Client wallet address\n     * @param freelancer Assigned freelancer address\n     * @param payment Locked ETH in wei\n     * @param state Current lifecycle state\n     * @param createdAt Block timestamp of creation\n     */\n    struct Job {\n        uint256 jobId;\n        address payable client;\n        address payable freelancer;\n        uint256 payment;\n        JobState state;\n        uint256 createdAt;\n    }\n\n    // ─── Mappings ─────────────────────────────────────────────────────\n    /// @notice All jobs indexed by ID\n    mapping(uint256 => Job) public jobs;\n\n    /// @notice Completed job count per address (on-chain reputation)\n    mapping(address => uint256) public completedJobs;\n\n    // ─── Events ───────────────────────────────────────────────────────\n    event JobCreated(uint256 indexed jobId, address indexed client, uint256 payment);\n    event JobAccepted(uint256 indexed jobId, address indexed freelancer);\n    event WorkSubmitted(uint256 indexed jobId, address indexed freelancer);\n    event PaymentReleased(uint256 indexed jobId, address indexed freelancer, uint256 amount);\n    event DisputeRaised(uint256 indexed jobId, address indexed raisedBy);\n    event DisputeResolved(uint256 indexed jobId, address indexed winner, uint256 amount);\n    /// @notice Emitted when freelancer claims payment after client timeout\n    event TimeoutClaim(uint256 indexed jobId, address indexed freelancer, uint256 amount);\n    // ─── Modifiers ────────────────────────────────────────────────────\n    /** @notice Only platform owner */\n    modifier onlyOwner() {\n        require(msg.sender == owner, \"Escrow: caller is not the owner\");\n        _;\n    }\n\n    /** @notice Only dispute validator */\n    modifier onlyValidator() {\n        require(msg.sender == validator, \"Escrow: caller is not the validator\");\n        _;\n    }\n\n    /** @notice Only client of this specific job */\n    modifier onlyClient(uint256 jobId) {\n        require(msg.sender == jobs[jobId].client, \"Escrow: caller is not the client\");\n        _;\n    }\n\n    /** @notice Only assigned freelancer of this job */\n    modifier onlyFreelancer(uint256 jobId) {\n        require(msg.sender == jobs[jobId].freelancer, \"Escrow: caller is not the freelancer\");\n        _;\n    }\n\n    /**\n     * @notice Enforces job is in a specific state before proceeding\n     * @param jobId Job to check\n     * @param expectedState Required state\n     */\n    modifier inState(uint256 jobId, JobState expectedState) {\n        require(jobs[jobId].state == expectedState, \"Escrow: job is not in the required state\");\n        _;\n    }\n\n    // ─── Constructor ──────────────────────────────────────────────────\n    /**\n     * @notice Deploys escrow, creates RepToken, sets owner and validator\n     * @param _validator Address that resolves disputes\n     */\n    constructor(address _validator) {\n        require(_validator != address(0), \"Escrow: validator cannot be zero address\");\n        owner     = msg.sender;\n        validator = _validator;\n        repToken  = new RepToken(address(this));\n    }\n\n    // ─── Functions ────────────────────────────────────────────────────\n\n    /**\n     * @notice Client creates a job and locks ETH in escrow\n     * @param jobId Matches the MongoDB document ID\n     */\n    function createJob(uint256 jobId) external payable {\n        // CHECKS\n        require(msg.value > 0, \"Escrow: payment must be greater than zero\");\n        require(jobs[jobId].client == address(0), \"Escrow: job ID already exists\");\n        // EFFECTS\n        jobs[jobId] = Job({\n            jobId:     jobId,\n            client:    payable(msg.sender),\n            freelancer: payable(address(0)),\n            payment:   msg.value,\n            state:     JobState.Open,\n            createdAt: block.timestamp\n        });\n        jobCount++;\n        // INTERACTIONS\n        emit JobCreated(jobId, msg.sender, msg.value);\n    }\n\n    /**\n     * @notice Freelancer accepts an open job\n     * @param jobId Job to accept\n     */\n    function acceptJob(uint256 jobId) external inState(jobId, JobState.Open) {\n        // CHECKS\n        require(msg.sender != jobs[jobId].client, \"Escrow: client cannot be their own freelancer\");\n        // EFFECTS\n        jobs[jobId].freelancer = payable(msg.sender);\n        jobs[jobId].state      = JobState.Accepted;\n        // INTERACTIONS\n        emit JobAccepted(jobId, msg.sender);\n    }\n\n    /**\n     * @notice Freelancer submits work for review\n     * @param jobId Job to submit\n     */\n    function submitWork(uint256 jobId)\n        external\n        onlyFreelancer(jobId)\n        inState(jobId, JobState.Accepted)\n    {\n        jobs[jobId].state = JobState.Submitted;\n        emit WorkSubmitted(jobId, msg.sender);\n    }\n\n    /**\n     * @notice Client approves work and releases ETH to freelancer\n     * @param jobId Job to approve\n     * @dev nonReentrant + Checks-Effects-Interactions prevents reentrancy\n     */\n    function approveWork(uint256 jobId)\n        external\n        onlyClient(jobId)\n        inState(jobId, JobState.Submitted)\n        nonReentrant\n    {\n        Job storage job = jobs[jobId];\n        // CHECKS\n        uint256 total = job.payment;\n        require(total > 0, \"Escrow: no payment to release\");\n        // EFFECTS — MUST happen before any external call\n        job.state   = JobState.Completed;\n        job.payment = 0;\n        completedJobs[job.freelancer]++;\n        uint256 fee    = (total * FEE_PERCENT) / 100;\n        uint256 payout = total - fee;\n        // INTERACTIONS — external calls last\n        job.freelancer.transfer(payout);\n        payable(owner).transfer(fee);\n        repToken.awardReputation(job.freelancer, REP_PER_JOB);\n        emit PaymentReleased(jobId, job.freelancer, payout);\n    }\n\n    /**\n     * @notice Either party raises a dispute on an active job\n     * @param jobId Disputed job\n     */\n    function raiseDispute(uint256 jobId) external {\n        Job storage job = jobs[jobId];\n        require(\n            msg.sender == job.client || msg.sender == job.freelancer,\n            \"Escrow: only job participants can raise a dispute\"\n        );\n        require(\n            job.state == JobState.Accepted || job.state == JobState.Submitted,\n            \"Escrow: dispute can only be raised on active jobs\"\n        );\n        job.state = JobState.Disputed;\n        emit DisputeRaised(jobId, msg.sender);\n    }\n    \n    /**\n    * @notice Freelancer claims payment if client is unresponsive for 7 days\n    * @param jobId The job where client has not responded\n    * @dev Only callable after TIMEOUT_DAYS since work was submitted\n    */  \n    function claimAfterTimeout(uint256 jobId)\n        external\n        onlyFreelancer(jobId)\n        inState(jobId, JobState.Submitted)\n        nonReentrant\n    {\n        Job storage job = jobs[jobId];\n\n        // CHECKS\n        require(\n            block.timestamp >= job.createdAt + (TIMEOUT_DAYS * 1 days),\n            \"Escrow: timeout period has not passed yet\"\n        );\n\n        uint256 totalPayment = job.payment;\n        require(totalPayment > 0, \"Escrow: no payment to release\");\n\n        // EFFECTS\n        job.state   = JobState.Completed;\n        job.payment = 0;\n        completedJobs[job.freelancer]++;\n\n        // INTERACTIONS\n        job.freelancer.transfer(totalPayment);\n        repToken.awardReputation(job.freelancer, REP_PER_JOB);\n\n        emit TimeoutClaim(jobId, job.freelancer, totalPayment);\n    }\n\n    /**\n     * @notice Validator decides dispute outcome\n     * @param jobId Disputed job\n     * @param favorFreelancer True = pay freelancer, false = refund client\n     */\n    function resolveDispute(uint256 jobId, bool favorFreelancer)\n        external\n        onlyValidator\n        inState(jobId, JobState.Disputed)\n        nonReentrant\n    {\n        Job storage job = jobs[jobId];\n        uint256 total   = job.payment;\n        require(total > 0, \"Escrow: no funds to distribute\");\n        // EFFECTS\n        job.state   = JobState.Resolved;\n        job.payment = 0;\n        address payable winner = favorFreelancer ? job.freelancer : job.client;\n        if (favorFreelancer) completedJobs[job.freelancer]++;\n        // INTERACTIONS\n        winner.transfer(total);\n        if (favorFreelancer) repToken.awardReputation(job.freelancer, REP_PER_JOB);\n        emit DisputeResolved(jobId, winner, total);\n    }\n\n    // ─── View Functions ───────────────────────────────────────────────\n\n    /**\n     * @notice Returns all data for a job\n     * @param jobId Job to query\n     */\n    function getJob(uint256 jobId) external view returns (Job memory) {\n        require(jobs[jobId].client != address(0), \"Escrow: job does not exist\");\n        return jobs[jobId];\n    }\n\n    /**\n     * @notice Returns REP token balance of any address\n     * @param account Address to query\n     */\n    function getReputation(address account) external view returns (uint256) {\n        return repToken.balanceOf(account);\n    }\n\n    /**\n     * @notice Returns total ETH locked in this contract\n     */\n    function getContractBalance() external view returns (uint256) {\n        return address(this).balance;\n    }\n}",
  "sourcePath": "/home/yasser/freelance-escrow/contracts/FreelanceEscrow.sol",
  "compiler": {
    "name": "solc",
    "version": "0.8.20+commit.a1b79de6.Emscripten.clang"
  },
  "schemaVersion": "3.4.16",
  "updatedAt": "2026-05-14T01:05:55.494Z",
  "devdoc": {
    "author": "Your Team Name",
    "details": "Uses ReentrancyGuard and Checks-Effects-Interactions throughout.",
    "errors": {
      "ReentrancyGuardReentrantCall()": [
        {
          "details": "Unauthorized reentrant call."
        }
      ]
    },
    "kind": "dev",
    "methods": {
      "acceptJob(uint256)": {
        "params": {
          "jobId": "Job to accept"
        }
      },
      "approveWork(uint256)": {
        "details": "nonReentrant + Checks-Effects-Interactions prevents reentrancy",
        "params": {
          "jobId": "Job to approve"
        }
      },
      "claimAfterTimeout(uint256)": {
        "details": "Only callable after TIMEOUT_DAYS since work was submitted",
        "params": {
          "jobId": "The job where client has not responded"
        }
      },
      "constructor": {
        "params": {
          "_validator": "Address that resolves disputes"
        }
      },
      "createJob(uint256)": {
        "params": {
          "jobId": "Matches the MongoDB document ID"
        }
      },
      "getJob(uint256)": {
        "params": {
          "jobId": "Job to query"
        }
      },
      "getReputation(address)": {
        "params": {
          "account": "Address to query"
        }
      },
      "raiseDispute(uint256)": {
        "params": {
          "jobId": "Disputed job"
        }
      },
      "resolveDispute(uint256,bool)": {
        "params": {
          "favorFreelancer": "True = pay freelancer, false = refund client",
          "jobId": "Disputed job"
        }
      },
      "submitWork(uint256)": {
        "params": {
          "jobId": "Job to submit"
        }
      }
    },
    "title": "FreelanceEscrow",
    "version": 1
  },
  "userdoc": {
    "events": {
      "TimeoutClaim(uint256,address,uint256)": {
        "notice": "Emitted when freelancer claims payment after client timeout"
      }
    },
    "kind": "user",
    "methods": {
      "FEE_PERCENT()": {
        "notice": "Platform fee: 2%"
      },
      "REP_PER_JOB()": {
        "notice": "REP tokens awarded per completed job (1 REP)"
      },
      "TIMEOUT_DAYS()": {
        "notice": "Days before freelancer can claim if client is unresponsive"
      },
      "acceptJob(uint256)": {
        "notice": "Freelancer accepts an open job"
      },
      "approveWork(uint256)": {
        "notice": "Client approves work and releases ETH to freelancer"
      },
      "claimAfterTimeout(uint256)": {
        "notice": "Freelancer claims payment if client is unresponsive for 7 days"
      },
      "completedJobs(address)": {
        "notice": "Completed job count per address (on-chain reputation)"
      },
      "constructor": {
        "notice": "Deploys escrow, creates RepToken, sets owner and validator"
      },
      "createJob(uint256)": {
        "notice": "Client creates a job and locks ETH in escrow"
      },
      "getContractBalance()": {
        "notice": "Returns total ETH locked in this contract"
      },
      "getJob(uint256)": {
        "notice": "Returns all data for a job"
      },
      "getReputation(address)": {
        "notice": "Returns REP token balance of any address"
      },
      "jobCount()": {
        "notice": "Total jobs ever created"
      },
      "jobs(uint256)": {
        "notice": "All jobs indexed by ID"
      },
      "owner()": {
        "notice": "Platform owner address (deployer)"
      },
      "raiseDispute(uint256)": {
        "notice": "Either party raises a dispute on an active job"
      },
      "repToken()": {
        "notice": "The REP token contract"
      },
      "resolveDispute(uint256,bool)": {
        "notice": "Validator decides dispute outcome"
      },
      "submitWork(uint256)": {
        "notice": "Freelancer submits work for review"
      },
      "validator()": {
        "notice": "Dispute resolution validator address"
      }
    },
    "notice": "Decentralized escrow for freelance work.         Clients lock ETH. Freelancers complete work.         Funds released on approval. Disputes resolved by validator.",
    "version": 1
  }
}